{
  "contractName": "ItemManager",
  "abi": [
    {
      "inputs": [
        {
          "internalType": "string",
          "name": "name",
          "type": "string"
        },
        {
          "internalType": "string",
          "name": "symbol",
          "type": "string"
        }
      ],
      "stateMutability": "nonpayable",
      "type": "constructor"
    },
    {
      "anonymous": false,
      "inputs": [
        {
          "indexed": true,
          "internalType": "address",
          "name": "owner",
          "type": "address"
        },
        {
          "indexed": true,
          "internalType": "address",
          "name": "approved",
          "type": "address"
        },
        {
          "indexed": true,
          "internalType": "uint256",
          "name": "tokenId",
          "type": "uint256"
        }
      ],
      "name": "Approval",
      "type": "event"
    },
    {
      "anonymous": false,
      "inputs": [
        {
          "indexed": true,
          "internalType": "address",
          "name": "owner",
          "type": "address"
        },
        {
          "indexed": true,
          "internalType": "address",
          "name": "operator",
          "type": "address"
        },
        {
          "indexed": false,
          "internalType": "bool",
          "name": "approved",
          "type": "bool"
        }
      ],
      "name": "ApprovalForAll",
      "type": "event"
    },
    {
      "anonymous": false,
      "inputs": [
        {
          "indexed": false,
          "internalType": "uint256",
          "name": "tokenId",
          "type": "uint256"
        },
        {
          "indexed": false,
          "internalType": "uint256",
          "name": "price",
          "type": "uint256"
        },
        {
          "indexed": false,
          "internalType": "address",
          "name": "creator",
          "type": "address"
        },
        {
          "indexed": false,
          "internalType": "bool",
          "name": "isListed",
          "type": "bool"
        }
      ],
      "name": "NFTCreation",
      "type": "event"
    },
    {
      "anonymous": false,
      "inputs": [
        {
          "indexed": true,
          "internalType": "address",
          "name": "from",
          "type": "address"
        },
        {
          "indexed": true,
          "internalType": "address",
          "name": "to",
          "type": "address"
        },
        {
          "indexed": true,
          "internalType": "uint256",
          "name": "tokenId",
          "type": "uint256"
        }
      ],
      "name": "Transfer",
      "type": "event"
    },
    {
      "inputs": [
        {
          "internalType": "address",
          "name": "to",
          "type": "address"
        },
        {
          "internalType": "uint256",
          "name": "tokenId",
          "type": "uint256"
        }
      ],
      "name": "approve",
      "outputs": [],
      "stateMutability": "nonpayable",
      "type": "function"
    },
    {
      "inputs": [
        {
          "internalType": "address",
          "name": "owner",
          "type": "address"
        }
      ],
      "name": "balanceOf",
      "outputs": [
        {
          "internalType": "uint256",
          "name": "",
          "type": "uint256"
        }
      ],
      "stateMutability": "view",
      "type": "function"
    },
    {
      "inputs": [
        {
          "internalType": "uint256",
          "name": "tokenId",
          "type": "uint256"
        }
      ],
      "name": "getApproved",
      "outputs": [
        {
          "internalType": "address",
          "name": "",
          "type": "address"
        }
      ],
      "stateMutability": "view",
      "type": "function"
    },
    {
      "inputs": [
        {
          "internalType": "address",
          "name": "owner",
          "type": "address"
        },
        {
          "internalType": "address",
          "name": "operator",
          "type": "address"
        }
      ],
      "name": "isApprovedForAll",
      "outputs": [
        {
          "internalType": "bool",
          "name": "",
          "type": "bool"
        }
      ],
      "stateMutability": "view",
      "type": "function"
    },
    {
      "inputs": [],
      "name": "name",
      "outputs": [
        {
          "internalType": "string",
          "name": "",
          "type": "string"
        }
      ],
      "stateMutability": "view",
      "type": "function"
    },
    {
      "inputs": [
        {
          "internalType": "uint256",
          "name": "tokenId",
          "type": "uint256"
        }
      ],
      "name": "ownerOf",
      "outputs": [
        {
          "internalType": "address",
          "name": "",
          "type": "address"
        }
      ],
      "stateMutability": "view",
      "type": "function"
    },
    {
      "inputs": [
        {
          "internalType": "address",
          "name": "from",
          "type": "address"
        },
        {
          "internalType": "address",
          "name": "to",
          "type": "address"
        },
        {
          "internalType": "uint256",
          "name": "tokenId",
          "type": "uint256"
        }
      ],
      "name": "safeTransferFrom",
      "outputs": [],
      "stateMutability": "nonpayable",
      "type": "function"
    },
    {
      "inputs": [
        {
          "internalType": "address",
          "name": "from",
          "type": "address"
        },
        {
          "internalType": "address",
          "name": "to",
          "type": "address"
        },
        {
          "internalType": "uint256",
          "name": "tokenId",
          "type": "uint256"
        },
        {
          "internalType": "bytes",
          "name": "data",
          "type": "bytes"
        }
      ],
      "name": "safeTransferFrom",
      "outputs": [],
      "stateMutability": "nonpayable",
      "type": "function"
    },
    {
      "inputs": [
        {
          "internalType": "address",
          "name": "operator",
          "type": "address"
        },
        {
          "internalType": "bool",
          "name": "approved",
          "type": "bool"
        }
      ],
      "name": "setApprovalForAll",
      "outputs": [],
      "stateMutability": "nonpayable",
      "type": "function"
    },
    {
      "inputs": [
        {
          "internalType": "bytes4",
          "name": "interfaceId",
          "type": "bytes4"
        }
      ],
      "name": "supportsInterface",
      "outputs": [
        {
          "internalType": "bool",
          "name": "",
          "type": "bool"
        }
      ],
      "stateMutability": "view",
      "type": "function"
    },
    {
      "inputs": [],
      "name": "symbol",
      "outputs": [
        {
          "internalType": "string",
          "name": "",
          "type": "string"
        }
      ],
      "stateMutability": "view",
      "type": "function"
    },
    {
      "inputs": [
        {
          "internalType": "uint256",
          "name": "index",
          "type": "uint256"
        }
      ],
      "name": "tokenByIndex",
      "outputs": [
        {
          "internalType": "uint256",
          "name": "",
          "type": "uint256"
        }
      ],
      "stateMutability": "view",
      "type": "function"
    },
    {
      "inputs": [
        {
          "internalType": "address",
          "name": "owner",
          "type": "address"
        },
        {
          "internalType": "uint256",
          "name": "index",
          "type": "uint256"
        }
      ],
      "name": "tokenByOwnedIndex",
      "outputs": [
        {
          "internalType": "uint256",
          "name": "",
          "type": "uint256"
        }
      ],
      "stateMutability": "view",
      "type": "function"
    },
    {
      "inputs": [
        {
          "internalType": "uint256",
          "name": "tokenId",
          "type": "uint256"
        }
      ],
      "name": "tokenURI",
      "outputs": [
        {
          "internalType": "string",
          "name": "",
          "type": "string"
        }
      ],
      "stateMutability": "view",
      "type": "function"
    },
    {
      "inputs": [],
      "name": "totalSupply",
      "outputs": [
        {
          "internalType": "uint256",
          "name": "",
          "type": "uint256"
        }
      ],
      "stateMutability": "view",
      "type": "function"
    },
    {
      "inputs": [
        {
          "internalType": "address",
          "name": "from",
          "type": "address"
        },
        {
          "internalType": "address",
          "name": "to",
          "type": "address"
        },
        {
          "internalType": "uint256",
          "name": "tokenId",
          "type": "uint256"
        }
      ],
      "name": "transferFrom",
      "outputs": [],
      "stateMutability": "nonpayable",
      "type": "function"
    },
    {
      "inputs": [
        {
          "internalType": "uint256",
          "name": "tokenId",
          "type": "uint256"
        }
      ],
      "name": "getNftItem",
      "outputs": [
        {
          "components": [
            {
              "internalType": "uint256",
              "name": "tokenId",
              "type": "uint256"
            },
            {
              "internalType": "uint256",
              "name": "price",
              "type": "uint256"
            },
            {
              "internalType": "address",
              "name": "creator",
              "type": "address"
            },
            {
              "internalType": "address",
              "name": "owner",
              "type": "address"
            },
            {
              "internalType": "bool",
              "name": "isListed",
              "type": "bool"
            }
          ],
          "internalType": "struct ItemManager.Item",
          "name": "",
          "type": "tuple"
        }
      ],
      "stateMutability": "view",
      "type": "function"
    },
    {
      "inputs": [],
      "name": "getAllNFTOnSale",
      "outputs": [
        {
          "components": [
            {
              "internalType": "uint256",
              "name": "tokenId",
              "type": "uint256"
            },
            {
              "internalType": "uint256",
              "name": "price",
              "type": "uint256"
            },
            {
              "internalType": "address",
              "name": "creator",
              "type": "address"
            },
            {
              "internalType": "address",
              "name": "owner",
              "type": "address"
            },
            {
              "internalType": "bool",
              "name": "isListed",
              "type": "bool"
            }
          ],
          "internalType": "struct ItemManager.Item[]",
          "name": "",
          "type": "tuple[]"
        }
      ],
      "stateMutability": "view",
      "type": "function"
    },
    {
      "inputs": [],
      "name": "getOwnedNfts",
      "outputs": [
        {
          "components": [
            {
              "internalType": "uint256",
              "name": "tokenId",
              "type": "uint256"
            },
            {
              "internalType": "uint256",
              "name": "price",
              "type": "uint256"
            },
            {
              "internalType": "address",
              "name": "creator",
              "type": "address"
            },
            {
              "internalType": "address",
              "name": "owner",
              "type": "address"
            },
            {
              "internalType": "bool",
              "name": "isListed",
              "type": "bool"
            }
          ],
          "internalType": "struct ItemManager.Item[]",
          "name": "",
          "type": "tuple[]"
        }
      ],
      "stateMutability": "view",
      "type": "function"
    }
  ],
  "bytecode": "0x60806040523480156200001157600080fd5b50604051620036e6380380620036e68339818101604052810190620000379190620001fa565b818181600090816200004a9190620004ca565b5080600190816200005c9190620004ca565b5050505050620005b1565b6000604051905090565b600080fd5b600080fd5b600080fd5b600080fd5b6000601f19601f8301169050919050565b7f4e487b7100000000000000000000000000000000000000000000000000000000600052604160045260246000fd5b620000d08262000085565b810181811067ffffffffffffffff82111715620000f257620000f162000096565b5b80604052505050565b60006200010762000067565b9050620001158282620000c5565b919050565b600067ffffffffffffffff82111562000138576200013762000096565b5b620001438262000085565b9050602081019050919050565b60005b838110156200017057808201518184015260208101905062000153565b60008484015250505050565b6000620001936200018d846200011a565b620000fb565b905082815260208101848484011115620001b257620001b162000080565b5b620001bf84828562000150565b509392505050565b600082601f830112620001df57620001de6200007b565b5b8151620001f18482602086016200017c565b91505092915050565b6000806040838503121562000214576200021362000071565b5b600083015167ffffffffffffffff81111562000235576200023462000076565b5b6200024385828601620001c7565b925050602083015167ffffffffffffffff81111562000267576200026662000076565b5b6200027585828601620001c7565b9150509250929050565b600081519050919050565b7f4e487b7100000000000000000000000000000000000000000000000000000000600052602260045260246000fd5b60006002820490506001821680620002d257607f821691505b602082108103620002e857620002e76200028a565b5b50919050565b60008190508160005260206000209050919050565b60006020601f8301049050919050565b600082821b905092915050565b600060088302620003527fffffffffffffffffffffffffffffffffffffffffffffffffffffffffffffffff8262000313565b6200035e868362000313565b95508019841693508086168417925050509392505050565b6000819050919050565b6000819050919050565b6000620003ab620003a56200039f8462000376565b62000380565b62000376565b9050919050565b6000819050919050565b620003c7836200038a565b620003df620003d682620003b2565b84845462000320565b825550505050565b600090565b620003f6620003e7565b62000403818484620003bc565b505050565b5b818110156200042b576200041f600082620003ec565b60018101905062000409565b5050565b601f8211156200047a576200044481620002ee565b6200044f8462000303565b810160208510156200045f578190505b620004776200046e8562000303565b83018262000408565b50505b505050565b600082821c905092915050565b60006200049f600019846008026200047f565b1980831691505092915050565b6000620004ba83836200048c565b9150826002028217905092915050565b620004d5826200027f565b67ffffffffffffffff811115620004f157620004f062000096565b5b620004fd8254620002b9565b6200050a8282856200042f565b600060209050601f8311600181146200054257600084156200052d578287015190505b620005398582620004ac565b865550620005a9565b601f1984166200055286620002ee565b60005b828110156200057c5784890151825560018201915060208501945060208101905062000555565b868310156200059c578489015162000598601f8916826200048c565b8355505b6001600288020188555050505b505050505050565b61312580620005c16000396000f3fe608060405234801561001057600080fd5b50600436106101215760003560e01c80636352211e116100ad578063a22cb46511610071578063a22cb46514610342578063b88d4fde1461035e578063c87b56dd1461037a578063d4e0968d146103aa578063e985e9c5146103c857610121565b80636352211e146102765780636f1a0af5146102a657806370a08231146102d657806370cbcb431461030657806395d89b411461032457610121565b806318160ddd116100f457806318160ddd146101c057806323b872dd146101de57806342842e0e146101fa5780634f6ccce71461021657806358692bea1461024657610121565b806301ffc9a71461012657806306fdde0314610156578063081812fc14610174578063095ea7b3146101a4575b600080fd5b610140600480360381019061013b919061219b565b6103f8565b60405161014d91906121e3565b60405180910390f35b61015e6104da565b60405161016b919061228e565b60405180910390f35b61018e600480360381019061018991906122e6565b61056c565b60405161019b9190612354565b60405180910390f35b6101be60048036038101906101b9919061239b565b6105b2565b005b6101c86106c9565b6040516101d591906123ea565b60405180910390f35b6101f860048036038101906101f39190612405565b6106d6565b005b610214600480360381019061020f9190612405565b610736565b005b610230600480360381019061022b91906122e6565b610756565b60405161023d91906123ea565b60405180910390f35b610260600480360381019061025b919061239b565b6107c7565b60405161026d91906123ea565b60405180910390f35b610290600480360381019061028b91906122e6565b61086c565b60405161029d9190612354565b60405180910390f35b6102c060048036038101906102bb91906122e6565b6108f2565b6040516102cd91906124ed565b60405180910390f35b6102f060048036038101906102eb9190612508565b6109fa565b6040516102fd91906123ea565b60405180910390f35b61030e610ab1565b60405161031b919061264c565b60405180910390f35b61032c610c6b565b604051610339919061228e565b60405180910390f35b61035c6004803603810190610357919061269a565b610cfd565b005b6103786004803603810190610373919061280f565b610d13565b005b610394600480360381019061038f91906122e6565b610d75565b6040516103a1919061228e565b60405180910390f35b6103b2610e87565b6040516103bf919061264c565b60405180910390f35b6103e260048036038101906103dd9190612892565b611076565b6040516103ef91906121e3565b60405180910390f35b60007f80ac58cd000000000000000000000000000000000000000000000000000000007bffffffffffffffffffffffffffffffffffffffffffffffffffffffff1916827bffffffffffffffffffffffffffffffffffffffffffffffffffffffff191614806104c357507f5b5e139f000000000000000000000000000000000000000000000000000000007bffffffffffffffffffffffffffffffffffffffffffffffffffffffff1916827bffffffffffffffffffffffffffffffffffffffffffffffffffffffff1916145b806104d357506104d28261110a565b5b9050919050565b6060600080546104e990612901565b80601f016020809104026020016040519081016040528092919081815260200182805461051590612901565b80156105625780601f1061053757610100808354040283529160200191610562565b820191906000526020600020905b81548152906001019060200180831161054557829003601f168201915b5050505050905090565b600061057782611174565b6004600083815260200190815260200160002060009054906101000a900473ffffffffffffffffffffffffffffffffffffffff169050919050565b60006105bd8261086c565b90508073ffffffffffffffffffffffffffffffffffffffff168373ffffffffffffffffffffffffffffffffffffffff160361062d576040517f08c379a0000000000000000000000000000000000000000000000000000000008152600401610624906129a4565b60405180910390fd5b8073ffffffffffffffffffffffffffffffffffffffff1661064c6111bf565b73ffffffffffffffffffffffffffffffffffffffff16148061067b575061067a816106756111bf565b611076565b5b6106ba576040517f08c379a00000000000000000000000000000000000000000000000000000000081526004016106b190612a36565b60405180910390fd5b6106c483836111c7565b505050565b6000600780549050905090565b6106e76106e16111bf565b82611280565b610726576040517f08c379a000000000000000000000000000000000000000000000000000000000815260040161071d90612ac8565b60405180910390fd5b610731838383611315565b505050565b61075183838360405180602001604052806000815250610d13565b505050565b60006107606106c9565b82106107a1576040517f08c379a000000000000000000000000000000000000000000000000000000000815260040161079890612b34565b60405180910390fd5b600782815481106107b5576107b4612b54565b5b90600052602060002001549050919050565b60006107d2836109fa565b8210610813576040517f08c379a000000000000000000000000000000000000000000000000000000000815260040161080a90612b34565b60405180910390fd5b600960008473ffffffffffffffffffffffffffffffffffffffff1673ffffffffffffffffffffffffffffffffffffffff168152602001908152602001600020600083815260200190815260200160002054905092915050565b6000806108788361160e565b9050600073ffffffffffffffffffffffffffffffffffffffff168173ffffffffffffffffffffffffffffffffffffffff16036108e9576040517f08c379a00000000000000000000000000000000000000000000000000000000081526004016108e090612bcf565b60405180910390fd5b80915050919050565b6108fa6120d2565b600d60008381526020019081526020016000206040518060a001604052908160008201548152602001600182015481526020016002820160009054906101000a900473ffffffffffffffffffffffffffffffffffffffff1673ffffffffffffffffffffffffffffffffffffffff1673ffffffffffffffffffffffffffffffffffffffff1681526020016003820160009054906101000a900473ffffffffffffffffffffffffffffffffffffffff1673ffffffffffffffffffffffffffffffffffffffff1673ffffffffffffffffffffffffffffffffffffffff1681526020016003820160149054906101000a900460ff1615151515815250509050919050565b60008073ffffffffffffffffffffffffffffffffffffffff168273ffffffffffffffffffffffffffffffffffffffff1603610a6a576040517f08c379a0000000000000000000000000000000000000000000000000000000008152600401610a6190612c61565b60405180910390fd5b600360008373ffffffffffffffffffffffffffffffffffffffff1673ffffffffffffffffffffffffffffffffffffffff168152602001908152602001600020549050919050565b60606000610abe336109fa565b905060008167ffffffffffffffff811115610adc57610adb6126e4565b5b604051908082528060200260200182016040528015610b1557816020015b610b026120d2565b815260200190600190039081610afa5790505b50905060005b82811015610c62576000610b2f33836107c7565b90506000600d60008381526020019081526020016000209050806040518060a001604052908160008201548152602001600182015481526020016002820160009054906101000a900473ffffffffffffffffffffffffffffffffffffffff1673ffffffffffffffffffffffffffffffffffffffff1673ffffffffffffffffffffffffffffffffffffffff1681526020016003820160009054906101000a900473ffffffffffffffffffffffffffffffffffffffff1673ffffffffffffffffffffffffffffffffffffffff1673ffffffffffffffffffffffffffffffffffffffff1681526020016003820160149054906101000a900460ff161515151581525050848481518110610c4257610c41612b54565b5b602002602001018190525050508080610c5a90612cb0565b915050610b1b565b50809250505090565b606060018054610c7a90612901565b80601f0160208091040260200160405190810160405280929190818152602001828054610ca690612901565b8015610cf35780601f10610cc857610100808354040283529160200191610cf3565b820191906000526020600020905b815481529060010190602001808311610cd657829003601f168201915b5050505050905090565b610d0f610d086111bf565b838361164b565b5050565b610d24610d1e6111bf565b83611280565b610d63576040517f08c379a0000000000000000000000000000000000000000000000000000000008152600401610d5a90612ac8565b60405180910390fd5b610d6f848484846117b7565b50505050565b6060610d8082611174565b6000600660008481526020019081526020016000208054610da090612901565b80601f0160208091040260200160405190810160405280929190818152602001828054610dcc90612901565b8015610e195780601f10610dee57610100808354040283529160200191610e19565b820191906000526020600020905b815481529060010190602001808311610dfc57829003601f168201915b505050505090506000610e2a611813565b90506000815103610e3f578192505050610e82565b600082511115610e74578082604051602001610e5c929190612d34565b60405160208183030381529060405292505050610e82565b610e7d8461182a565b925050505b919050565b60606000610e936106c9565b9050600080610ea2600b611892565b67ffffffffffffffff811115610ebb57610eba6126e4565b5b604051908082528060200260200182016040528015610ef457816020015b610ee16120d2565b815260200190600190039081610ed95790505b50905060005b8381101561106c576000610f0d82610756565b90506000600d60008381526020019081526020016000209050600115158160030160149054906101000a900460ff1615150361105757806040518060a001604052908160008201548152602001600182015481526020016002820160009054906101000a900473ffffffffffffffffffffffffffffffffffffffff1673ffffffffffffffffffffffffffffffffffffffff1673ffffffffffffffffffffffffffffffffffffffff1681526020016003820160009054906101000a900473ffffffffffffffffffffffffffffffffffffffff1673ffffffffffffffffffffffffffffffffffffffff1673ffffffffffffffffffffffffffffffffffffffff1681526020016003820160149054906101000a900460ff16151515158152505084868151811061103d5761103c612b54565b5b6020026020010181905250848061105390612cb0565b9550505b5050808061106490612cb0565b915050610efa565b5080935050505090565b6000600560008473ffffffffffffffffffffffffffffffffffffffff1673ffffffffffffffffffffffffffffffffffffffff16815260200190815260200160002060008373ffffffffffffffffffffffffffffffffffffffff1673ffffffffffffffffffffffffffffffffffffffff16815260200190815260200160002060009054906101000a900460ff16905092915050565b60007f01ffc9a7000000000000000000000000000000000000000000000000000000007bffffffffffffffffffffffffffffffffffffffffffffffffffffffff1916827bffffffffffffffffffffffffffffffffffffffffffffffffffffffff1916149050919050565b61117d816118a0565b6111bc576040517f08c379a00000000000000000000000000000000000000000000000000000000081526004016111b390612bcf565b60405180910390fd5b50565b600033905090565b816004600083815260200190815260200160002060006101000a81548173ffffffffffffffffffffffffffffffffffffffff021916908373ffffffffffffffffffffffffffffffffffffffff160217905550808273ffffffffffffffffffffffffffffffffffffffff1661123a8361086c565b73ffffffffffffffffffffffffffffffffffffffff167f8c5be1e5ebec7d5bd14f71427d1e84f3dd0314c0f7b2291e5b200ac8c7c3b92560405160405180910390a45050565b60008061128c8361086c565b90508073ffffffffffffffffffffffffffffffffffffffff168473ffffffffffffffffffffffffffffffffffffffff1614806112ce57506112cd8185611076565b5b8061130c57508373ffffffffffffffffffffffffffffffffffffffff166112f48461056c565b73ffffffffffffffffffffffffffffffffffffffff16145b91505092915050565b8273ffffffffffffffffffffffffffffffffffffffff166113358261086c565b73ffffffffffffffffffffffffffffffffffffffff161461138b576040517f08c379a000000000000000000000000000000000000000000000000000000000815260040161138290612dca565b60405180910390fd5b600073ffffffffffffffffffffffffffffffffffffffff168273ffffffffffffffffffffffffffffffffffffffff16036113fa576040517f08c379a00000000000000000000000000000000000000000000000000000000081526004016113f190612e5c565b60405180910390fd5b61140783838360016118e1565b8273ffffffffffffffffffffffffffffffffffffffff166114278261086c565b73ffffffffffffffffffffffffffffffffffffffff161461147d576040517f08c379a000000000000000000000000000000000000000000000000000000000815260040161147490612dca565b60405180910390fd5b6004600082815260200190815260200160002060006101000a81549073ffffffffffffffffffffffffffffffffffffffff02191690556001600360008573ffffffffffffffffffffffffffffffffffffffff1673ffffffffffffffffffffffffffffffffffffffff168152602001908152602001600020600082825403925050819055506001600360008473ffffffffffffffffffffffffffffffffffffffff1673ffffffffffffffffffffffffffffffffffffffff16815260200190815260200160002060008282540192505081905550816002600083815260200190815260200160002060006101000a81548173ffffffffffffffffffffffffffffffffffffffff021916908373ffffffffffffffffffffffffffffffffffffffff160217905550808273ffffffffffffffffffffffffffffffffffffffff168473ffffffffffffffffffffffffffffffffffffffff167fddf252ad1be2c89b69c2b068fc378daa952ba7f163c4a11628f55a4df523b3ef60405160405180910390a461160983838360016119f5565b505050565b60006002600083815260200190815260200160002060009054906101000a900473ffffffffffffffffffffffffffffffffffffffff169050919050565b8173ffffffffffffffffffffffffffffffffffffffff168373ffffffffffffffffffffffffffffffffffffffff16036116b9576040517f08c379a00000000000000000000000000000000000000000000000000000000081526004016116b090612ec8565b60405180910390fd5b80600560008573ffffffffffffffffffffffffffffffffffffffff1673ffffffffffffffffffffffffffffffffffffffff16815260200190815260200160002060008473ffffffffffffffffffffffffffffffffffffffff1673ffffffffffffffffffffffffffffffffffffffff16815260200190815260200160002060006101000a81548160ff0219169083151502179055508173ffffffffffffffffffffffffffffffffffffffff168373ffffffffffffffffffffffffffffffffffffffff167f17307eab39ab6107e8899845ad3d59bd9653f200f220920489ca2b5937696c31836040516117aa91906121e3565b60405180910390a3505050565b6117c2848484611315565b6117ce848484846119fb565b61180d576040517f08c379a000000000000000000000000000000000000000000000000000000000815260040161180490612f5a565b60405180910390fd5b50505050565b606060405180602001604052806000815250905090565b606061183582611174565b600061183f611813565b9050600081511161185f576040518060200160405280600081525061188a565b8061186984611b82565b60405160200161187a929190612d34565b6040516020818303038152906040525b915050919050565b600081600001549050919050565b60008073ffffffffffffffffffffffffffffffffffffffff166118c28361160e565b73ffffffffffffffffffffffffffffffffffffffff1614159050919050565b6118ed84848484611c50565b600073ffffffffffffffffffffffffffffffffffffffff168473ffffffffffffffffffffffffffffffffffffffff160361192f5761192a82611c56565b61196e565b8273ffffffffffffffffffffffffffffffffffffffff168473ffffffffffffffffffffffffffffffffffffffff161461196d5761196c8483611c9f565b5b5b600073ffffffffffffffffffffffffffffffffffffffff168373ffffffffffffffffffffffffffffffffffffffff16036119b0576119ab82611e0c565b6119ef565b8373ffffffffffffffffffffffffffffffffffffffff168373ffffffffffffffffffffffffffffffffffffffff16146119ee576119ed8383611edd565b5b5b50505050565b50505050565b6000611a1c8473ffffffffffffffffffffffffffffffffffffffff16611f5c565b15611b75578373ffffffffffffffffffffffffffffffffffffffff1663150b7a02611a456111bf565b8786866040518563ffffffff1660e01b8152600401611a679493929190612fcf565b6020604051808303816000875af1925050508015611aa357506040513d601f19601f82011682018060405250810190611aa09190613030565b60015b611b25573d8060008114611ad3576040519150601f19603f3d011682016040523d82523d6000602084013e611ad8565b606091505b506000815103611b1d576040517f08c379a0000000000000000000000000000000000000000000000000000000008152600401611b1490612f5a565b60405180910390fd5b805181602001fd5b63150b7a0260e01b7bffffffffffffffffffffffffffffffffffffffffffffffffffffffff1916817bffffffffffffffffffffffffffffffffffffffffffffffffffffffff191614915050611b7a565b600190505b949350505050565b606060006001611b9184611f7f565b01905060008167ffffffffffffffff811115611bb057611baf6126e4565b5b6040519080825280601f01601f191660200182016040528015611be25781602001600182028036833780820191505090505b509050600082602001820190505b600115611c45578080600190039150507f3031323334353637383961626364656600000000000000000000000000000000600a86061a8153600a8581611c3957611c3861305d565b5b04945060008503611bf0575b819350505050919050565b50505050565b6007805490506008600083815260200190815260200160002081905550600781908060018154018082558091505060019003906000526020600020016000909190919091505550565b60006001611cac846109fa565b611cb6919061308c565b90506000600a6000848152602001908152602001600020549050818114611d9b576000600960008673ffffffffffffffffffffffffffffffffffffffff1673ffffffffffffffffffffffffffffffffffffffff168152602001908152602001600020600084815260200190815260200160002054905080600960008773ffffffffffffffffffffffffffffffffffffffff1673ffffffffffffffffffffffffffffffffffffffff16815260200190815260200160002060008481526020019081526020016000208190555081600a600083815260200190815260200160002081905550505b600a600084815260200190815260200160002060009055600960008573ffffffffffffffffffffffffffffffffffffffff1673ffffffffffffffffffffffffffffffffffffffff16815260200190815260200160002060008381526020019081526020016000206000905550505050565b60006001600780549050611e20919061308c565b9050600060086000848152602001908152602001600020549050600060078381548110611e5057611e4f612b54565b5b906000526020600020015490508060078381548110611e7257611e71612b54565b5b906000526020600020018190555081600860008381526020019081526020016000208190555060086000858152602001908152602001600020600090556007805480611ec157611ec06130c0565b5b6001900381819060005260206000200160009055905550505050565b6000611ee8836109fa565b905081600960008573ffffffffffffffffffffffffffffffffffffffff1673ffffffffffffffffffffffffffffffffffffffff16815260200190815260200160002060008381526020019081526020016000208190555080600a600084815260200190815260200160002081905550505050565b6000808273ffffffffffffffffffffffffffffffffffffffff163b119050919050565b600080600090507a184f03e93ff9f4daa797ed6e38ed64bf6a1f0100000000000000008310611fdd577a184f03e93ff9f4daa797ed6e38ed64bf6a1f0100000000000000008381611fd357611fd261305d565b5b0492506040810190505b6d04ee2d6d415b85acef8100000000831061201a576d04ee2d6d415b85acef810000000083816120105761200f61305d565b5b0492506020810190505b662386f26fc10000831061204957662386f26fc10000838161203f5761203e61305d565b5b0492506010810190505b6305f5e1008310612072576305f5e10083816120685761206761305d565b5b0492506008810190505b612710831061209757612710838161208d5761208c61305d565b5b0492506004810190505b606483106120ba57606483816120b0576120af61305d565b5b0492506002810190505b600a83106120c9576001810190505b80915050919050565b6040518060a001604052806000815260200160008152602001600073ffffffffffffffffffffffffffffffffffffffff168152602001600073ffffffffffffffffffffffffffffffffffffffff1681526020016000151581525090565b6000604051905090565b600080fd5b600080fd5b60007fffffffff0000000000000000000000000000000000000000000000000000000082169050919050565b61217881612143565b811461218357600080fd5b50565b6000813590506121958161216f565b92915050565b6000602082840312156121b1576121b0612139565b5b60006121bf84828501612186565b91505092915050565b60008115159050919050565b6121dd816121c8565b82525050565b60006020820190506121f860008301846121d4565b92915050565b600081519050919050565b600082825260208201905092915050565b60005b8381101561223857808201518184015260208101905061221d565b60008484015250505050565b6000601f19601f8301169050919050565b6000612260826121fe565b61226a8185612209565b935061227a81856020860161221a565b61228381612244565b840191505092915050565b600060208201905081810360008301526122a88184612255565b905092915050565b6000819050919050565b6122c3816122b0565b81146122ce57600080fd5b50565b6000813590506122e0816122ba565b92915050565b6000602082840312156122fc576122fb612139565b5b600061230a848285016122d1565b91505092915050565b600073ffffffffffffffffffffffffffffffffffffffff82169050919050565b600061233e82612313565b9050919050565b61234e81612333565b82525050565b60006020820190506123696000830184612345565b92915050565b61237881612333565b811461238357600080fd5b50565b6000813590506123958161236f565b92915050565b600080604083850312156123b2576123b1612139565b5b60006123c085828601612386565b92505060206123d1858286016122d1565b9150509250929050565b6123e4816122b0565b82525050565b60006020820190506123ff60008301846123db565b92915050565b60008060006060848603121561241e5761241d612139565b5b600061242c86828701612386565b935050602061243d86828701612386565b925050604061244e868287016122d1565b9150509250925092565b612461816122b0565b82525050565b61247081612333565b82525050565b61247f816121c8565b82525050565b60a08201600082015161249b6000850182612458565b5060208201516124ae6020850182612458565b5060408201516124c16040850182612467565b5060608201516124d46060850182612467565b5060808201516124e76080850182612476565b50505050565b600060a0820190506125026000830184612485565b92915050565b60006020828403121561251e5761251d612139565b5b600061252c84828501612386565b91505092915050565b600081519050919050565b600082825260208201905092915050565b6000819050602082019050919050565b60a0820160008201516125776000850182612458565b50602082015161258a6020850182612458565b50604082015161259d6040850182612467565b5060608201516125b06060850182612467565b5060808201516125c36080850182612476565b50505050565b60006125d58383612561565b60a08301905092915050565b6000602082019050919050565b60006125f982612535565b6126038185612540565b935061260e83612551565b8060005b8381101561263f57815161262688826125c9565b9750612631836125e1565b925050600181019050612612565b5085935050505092915050565b6000602082019050818103600083015261266681846125ee565b905092915050565b612677816121c8565b811461268257600080fd5b50565b6000813590506126948161266e565b92915050565b600080604083850312156126b1576126b0612139565b5b60006126bf85828601612386565b92505060206126d085828601612685565b9150509250929050565b600080fd5b600080fd5b7f4e487b7100000000000000000000000000000000000000000000000000000000600052604160045260246000fd5b61271c82612244565b810181811067ffffffffffffffff8211171561273b5761273a6126e4565b5b80604052505050565b600061274e61212f565b905061275a8282612713565b919050565b600067ffffffffffffffff82111561277a576127796126e4565b5b61278382612244565b9050602081019050919050565b82818337600083830152505050565b60006127b26127ad8461275f565b612744565b9050828152602081018484840111156127ce576127cd6126df565b5b6127d9848285612790565b509392505050565b600082601f8301126127f6576127f56126da565b5b813561280684826020860161279f565b91505092915050565b6000806000806080858703121561282957612828612139565b5b600061283787828801612386565b945050602061284887828801612386565b9350506040612859878288016122d1565b925050606085013567ffffffffffffffff81111561287a5761287961213e565b5b612886878288016127e1565b91505092959194509250565b600080604083850312156128a9576128a8612139565b5b60006128b785828601612386565b92505060206128c885828601612386565b9150509250929050565b7f4e487b7100000000000000000000000000000000000000000000000000000000600052602260045260246000fd5b6000600282049050600182168061291957607f821691505b60208210810361292c5761292b6128d2565b5b50919050565b7f4552433732313a20617070726f76616c20746f2063757272656e74206f776e6560008201527f7200000000000000000000000000000000000000000000000000000000000000602082015250565b600061298e602183612209565b915061299982612932565b604082019050919050565b600060208201905081810360008301526129bd81612981565b9050919050565b7f4552433732313a20617070726f76652063616c6c6572206973206e6f7420746f60008201527f6b656e206f776e6572206f7220617070726f76656420666f7220616c6c000000602082015250565b6000612a20603d83612209565b9150612a2b826129c4565b604082019050919050565b60006020820190508181036000830152612a4f81612a13565b9050919050565b7f4552433732313a2063616c6c6572206973206e6f7420746f6b656e206f776e6560008201527f72206f7220617070726f76656400000000000000000000000000000000000000602082015250565b6000612ab2602d83612209565b9150612abd82612a56565b604082019050919050565b60006020820190508181036000830152612ae181612aa5565b9050919050565b7f696e646578206973206f7574206f6620626f756e640000000000000000000000600082015250565b6000612b1e601583612209565b9150612b2982612ae8565b602082019050919050565b60006020820190508181036000830152612b4d81612b11565b9050919050565b7f4e487b7100000000000000000000000000000000000000000000000000000000600052603260045260246000fd5b7f4552433732313a20696e76616c696420746f6b656e2049440000000000000000600082015250565b6000612bb9601883612209565b9150612bc482612b83565b602082019050919050565b60006020820190508181036000830152612be881612bac565b9050919050565b7f4552433732313a2061646472657373207a65726f206973206e6f74206120766160008201527f6c6964206f776e65720000000000000000000000000000000000000000000000602082015250565b6000612c4b602983612209565b9150612c5682612bef565b604082019050919050565b60006020820190508181036000830152612c7a81612c3e565b9050919050565b7f4e487b7100000000000000000000000000000000000000000000000000000000600052601160045260246000fd5b6000612cbb826122b0565b91507fffffffffffffffffffffffffffffffffffffffffffffffffffffffffffffffff8203612ced57612cec612c81565b5b600182019050919050565b600081905092915050565b6000612d0e826121fe565b612d188185612cf8565b9350612d2881856020860161221a565b80840191505092915050565b6000612d408285612d03565b9150612d4c8284612d03565b91508190509392505050565b7f4552433732313a207472616e736665722066726f6d20696e636f72726563742060008201527f6f776e6572000000000000000000000000000000000000000000000000000000602082015250565b6000612db4602583612209565b9150612dbf82612d58565b604082019050919050565b60006020820190508181036000830152612de381612da7565b9050919050565b7f4552433732313a207472616e7366657220746f20746865207a65726f2061646460008201527f7265737300000000000000000000000000000000000000000000000000000000602082015250565b6000612e46602483612209565b9150612e5182612dea565b604082019050919050565b60006020820190508181036000830152612e7581612e39565b9050919050565b7f4552433732313a20617070726f766520746f2063616c6c657200000000000000600082015250565b6000612eb2601983612209565b9150612ebd82612e7c565b602082019050919050565b60006020820190508181036000830152612ee181612ea5565b9050919050565b7f4552433732313a207472616e7366657220746f206e6f6e20455243373231526560008201527f63656976657220696d706c656d656e7465720000000000000000000000000000602082015250565b6000612f44603283612209565b9150612f4f82612ee8565b604082019050919050565b60006020820190508181036000830152612f7381612f37565b9050919050565b600081519050919050565b600082825260208201905092915050565b6000612fa182612f7a565b612fab8185612f85565b9350612fbb81856020860161221a565b612fc481612244565b840191505092915050565b6000608082019050612fe46000830187612345565b612ff16020830186612345565b612ffe60408301856123db565b81810360608301526130108184612f96565b905095945050505050565b60008151905061302a8161216f565b92915050565b60006020828403121561304657613045612139565b5b60006130548482850161301b565b91505092915050565b7f4e487b7100000000000000000000000000000000000000000000000000000000600052601260045260246000fd5b6000613097826122b0565b91506130a2836122b0565b92508282039050818111156130ba576130b9612c81565b5b92915050565b7f4e487b7100000000000000000000000000000000000000000000000000000000600052603160045260246000fdfea2646970667358221220d3212850fa04018a71745e32761668fb6ba9d05033978c6d0baa5f0fb8036ab964736f6c63430008130033",
  "immutableReferences": {},
  "source": "// SPDX-License-Identifier: MIT\r\npragma solidity >=0.4.22 <0.9.0;\r\n\r\nimport \"@openzeppelin/contracts/utils/Counters.sol\";\r\nimport \"@openzeppelin/contracts/token/ERC721/extensions/ERC721URIStorage.sol\";\r\nimport \"./Enumerable.sol\";\r\ncontract ItemManager is ERC721URIStorage,Enumerable {\r\n    using Counters for Counters.Counter;\r\n    Counters.Counter  _items;\r\n    Counters.Counter  _tokenIds;\r\n    mapping(uint => Item)  _idToNftItem;\r\n    mapping(string => bool)  _usedTokenURIs;\r\n\r\n\r\n    constructor(string memory name, string memory symbol) ERC721(name, symbol) {}\r\n\r\n    struct Item {\r\n        uint tokenId;\r\n        uint price;\r\n        address creator;\r\n        address owner;\r\n        bool isListed;\r\n    }\r\n\r\n    event NFTCreation(\r\n        uint tokenId,\r\n        uint price,\r\n        address creator,\r\n        bool isListed\r\n    );\r\n    \r\n    function _mintToken(address to, string memory tokenURI) internal returns (uint) {\r\n        _tokenIds.increment();\r\n        _items.increment();\r\n        uint _tokenId = _tokenIds.current();\r\n\r\n        _safeMint(to, _tokenId);\r\n        _setTokenURI(_tokenId, tokenURI);\r\n\r\n        return _tokenId;\r\n    }\r\n\r\n    function _buyNFT(uint tokenId, address buyer, uint value) internal {\r\n        uint price = _idToNftItem[tokenId].price;\r\n        address owner = ERC721.ownerOf(tokenId);\r\n\r\n        require(value == price, \"Please submit the price\");\r\n        require(buyer != owner, \"You already own this NFT\");\r\n\r\n        _idToNftItem[tokenId].isListed = false;\r\n        _items.decrement();\r\n\r\n        _transfer(owner, buyer, tokenId);\r\n        payable(owner).transfer(value);\r\n        _idToNftItem[tokenId].owner = buyer; \r\n    }\r\n\r\n    function _createItem(uint tokenId, uint price,string memory tokenURI) internal {\r\n        require(price > 0, \"Price must be at least 1 wei\");\r\n        require(!_usedTokenURIs[tokenURI], \"token URI is existed\");\r\n        _idToNftItem[tokenId] = Item(tokenId, price, msg.sender,msg.sender,true);\r\n        _usedTokenURIs[tokenURI] = true;\r\n        emit NFTCreation(tokenId, price, msg.sender, true);\r\n    }\r\n\r\n    function _placeNftOnSale(uint tokenId, address caller, uint price) internal {\r\n        require(ERC721.ownerOf(tokenId) == caller, \"You are not the NFT owner!\");\r\n        require(_idToNftItem[tokenId].isListed == false, \"NFT is on sale!\");\r\n\r\n        _idToNftItem[tokenId].isListed = true;\r\n        _idToNftItem[tokenId].price = price;\r\n        _items.increment();\r\n    }\r\n\r\n    function _placeNftOffSale(uint tokenId, address caller) internal {\r\n        require(ERC721.ownerOf(tokenId) == caller, \"You are not the NFT owner!\");\r\n        require(_idToNftItem[tokenId].isListed == true, \"NFT is off sale!\");\r\n\r\n        _idToNftItem[tokenId].isListed = false;\r\n        _items.decrement();\r\n    }\r\n\r\n    function getNftItem(uint tokenId) public view returns (Item memory) {\r\n        return _idToNftItem[tokenId];\r\n    }\r\n\r\n    function getAllNFTOnSale() public view returns (Item[] memory){\r\n        uint allItemsCounts = totalSupply();\r\n        uint CurrentIndex = 0;\r\n        \r\n        Item[] memory items = new Item[](_items.current());\r\n\r\n        for (uint i = 0; i < allItemsCounts;i++){\r\n            uint tokenId = tokenByIndex(i);\r\n            Item storage item = _idToNftItem[tokenId];\r\n\r\n            if(item.isListed == true){\r\n                items[CurrentIndex] = item;\r\n                CurrentIndex++;\r\n            }\r\n        }\r\n        return items;\r\n    }\r\n\r\n    function getOwnedNfts() public view returns(Item[] memory){\r\n        uint ownedItemsCount = ERC721.balanceOf(msg.sender);\r\n        Item[] memory items = new Item[](ownedItemsCount);\r\n\r\n        for(uint i=0;i<ownedItemsCount;i++){\r\n            uint tokenId = tokenByOwnedIndex(msg.sender,i);\r\n            Item storage item = _idToNftItem[tokenId];\r\n            items[i] = item;\r\n        }\r\n\r\n        return items;\r\n    }\r\n\r\n    function _beforeTokenTransfer(address from,address to, uint256 tokenId,uint256 batchSize)internal virtual override{\r\n        super._beforeTokenTransfer(from,to,tokenId,batchSize);\r\n\r\n        if(from == address(0)){         \r\n            _addTokenToAllTokensEnum(tokenId);\r\n        }\r\n        else if(from!=to){\r\n            _removeTokenFromOwnerEnum(from, tokenId);\r\n        }\r\n\r\n        if(to == address(0)){\r\n            _removeTokenFromAllTokensEnum(tokenId);\r\n        }\r\n        else if(to!=from){\r\n            _addTokenToOwnerEnum(to,tokenId);\r\n        }\r\n    }\r\n}",
  "sourcePath": "C:\\Users\\ROG\\market\\nft-marketplace\\contracts\\ItemManager.sol",
  "compiler": {
    "name": "solc",
    "version": "0.8.19+commit.7dd6d404.Emscripten.clang"
  },
  "schemaVersion": "3.4.13",
  "updatedAt": "2023-04-20T03:48:09.641Z",
  "devdoc": {
    "events": {
      "Approval(address,address,uint256)": {
        "details": "Emitted when `owner` enables `approved` to manage the `tokenId` token."
      },
      "ApprovalForAll(address,address,bool)": {
        "details": "Emitted when `owner` enables or disables (`approved`) `operator` to manage all of its assets."
      },
      "Transfer(address,address,uint256)": {
        "details": "Emitted when `tokenId` token is transferred from `from` to `to`."
      }
    },
    "kind": "dev",
    "methods": {
      "approve(address,uint256)": {
        "details": "See {IERC721-approve}."
      },
      "balanceOf(address)": {
        "details": "See {IERC721-balanceOf}."
      },
      "getApproved(uint256)": {
        "details": "See {IERC721-getApproved}."
      },
      "isApprovedForAll(address,address)": {
        "details": "See {IERC721-isApprovedForAll}."
      },
      "name()": {
        "details": "See {IERC721Metadata-name}."
      },
      "ownerOf(uint256)": {
        "details": "See {IERC721-ownerOf}."
      },
      "safeTransferFrom(address,address,uint256)": {
        "details": "See {IERC721-safeTransferFrom}."
      },
      "safeTransferFrom(address,address,uint256,bytes)": {
        "details": "See {IERC721-safeTransferFrom}."
      },
      "setApprovalForAll(address,bool)": {
        "details": "See {IERC721-setApprovalForAll}."
      },
      "supportsInterface(bytes4)": {
        "details": "See {IERC165-supportsInterface}."
      },
      "symbol()": {
        "details": "See {IERC721Metadata-symbol}."
      },
      "tokenURI(uint256)": {
        "details": "See {IERC721Metadata-tokenURI}."
      },
      "transferFrom(address,address,uint256)": {
        "details": "See {IERC721-transferFrom}."
      }
    },
    "version": 1
  },
  "userdoc": {
    "kind": "user",
    "methods": {},
    "version": 1
  }
}