{
  "contractName": "NftMarket",
  "abi": [
    {
      "inputs": [],
      "stateMutability": "nonpayable",
      "type": "constructor"
    },
    {
      "anonymous": false,
      "inputs": [
        {
          "indexed": true,
          "internalType": "address",
          "name": "owner",
          "type": "address"
        },
        {
          "indexed": true,
          "internalType": "address",
          "name": "approved",
          "type": "address"
        },
        {
          "indexed": true,
          "internalType": "uint256",
          "name": "tokenId",
          "type": "uint256"
        }
      ],
      "name": "Approval",
      "type": "event"
    },
    {
      "anonymous": false,
      "inputs": [
        {
          "indexed": true,
          "internalType": "address",
          "name": "owner",
          "type": "address"
        },
        {
          "indexed": true,
          "internalType": "address",
          "name": "operator",
          "type": "address"
        },
        {
          "indexed": false,
          "internalType": "bool",
          "name": "approved",
          "type": "bool"
        }
      ],
      "name": "ApprovalForAll",
      "type": "event"
    },
    {
      "anonymous": false,
      "inputs": [
        {
          "indexed": false,
          "internalType": "uint256",
          "name": "tokenId",
          "type": "uint256"
        },
        {
          "indexed": false,
          "internalType": "uint256",
          "name": "price",
          "type": "uint256"
        },
        {
          "indexed": false,
          "internalType": "address",
          "name": "creator",
          "type": "address"
        },
        {
          "indexed": false,
          "internalType": "bool",
          "name": "isListed",
          "type": "bool"
        }
      ],
      "name": "NFTCreation",
      "type": "event"
    },
    {
      "anonymous": false,
      "inputs": [
        {
          "indexed": true,
          "internalType": "address",
          "name": "previousOwner",
          "type": "address"
        },
        {
          "indexed": true,
          "internalType": "address",
          "name": "newOwner",
          "type": "address"
        }
      ],
      "name": "OwnershipTransferred",
      "type": "event"
    },
    {
      "anonymous": false,
      "inputs": [
        {
          "indexed": true,
          "internalType": "address",
          "name": "from",
          "type": "address"
        },
        {
          "indexed": true,
          "internalType": "address",
          "name": "to",
          "type": "address"
        },
        {
          "indexed": true,
          "internalType": "uint256",
          "name": "tokenId",
          "type": "uint256"
        }
      ],
      "name": "Transfer",
      "type": "event"
    },
    {
      "inputs": [
        {
          "internalType": "address",
          "name": "to",
          "type": "address"
        },
        {
          "internalType": "uint256",
          "name": "tokenId",
          "type": "uint256"
        }
      ],
      "name": "approve",
      "outputs": [],
      "stateMutability": "nonpayable",
      "type": "function"
    },
    {
      "inputs": [
        {
          "internalType": "address",
          "name": "owner",
          "type": "address"
        }
      ],
      "name": "balanceOf",
      "outputs": [
        {
          "internalType": "uint256",
          "name": "",
          "type": "uint256"
        }
      ],
      "stateMutability": "view",
      "type": "function",
      "constant": true
    },
    {
      "inputs": [
        {
          "internalType": "uint256",
          "name": "tokenId",
          "type": "uint256"
        }
      ],
      "name": "getApproved",
      "outputs": [
        {
          "internalType": "address",
          "name": "",
          "type": "address"
        }
      ],
      "stateMutability": "view",
      "type": "function",
      "constant": true
    },
    {
      "inputs": [
        {
          "internalType": "address",
          "name": "owner",
          "type": "address"
        },
        {
          "internalType": "address",
          "name": "operator",
          "type": "address"
        }
      ],
      "name": "isApprovedForAll",
      "outputs": [
        {
          "internalType": "bool",
          "name": "",
          "type": "bool"
        }
      ],
      "stateMutability": "view",
      "type": "function",
      "constant": true
    },
    {
      "inputs": [],
      "name": "name",
      "outputs": [
        {
          "internalType": "string",
          "name": "",
          "type": "string"
        }
      ],
      "stateMutability": "view",
      "type": "function",
      "constant": true
    },
    {
      "inputs": [],
      "name": "owner",
      "outputs": [
        {
          "internalType": "address",
          "name": "",
          "type": "address"
        }
      ],
      "stateMutability": "view",
      "type": "function",
      "constant": true
    },
    {
      "inputs": [
        {
          "internalType": "uint256",
          "name": "tokenId",
          "type": "uint256"
        }
      ],
      "name": "ownerOf",
      "outputs": [
        {
          "internalType": "address",
          "name": "",
          "type": "address"
        }
      ],
      "stateMutability": "view",
      "type": "function",
      "constant": true
    },
    {
      "inputs": [],
      "name": "renounceOwnership",
      "outputs": [],
      "stateMutability": "nonpayable",
      "type": "function"
    },
    {
      "inputs": [
        {
          "internalType": "address",
          "name": "from",
          "type": "address"
        },
        {
          "internalType": "address",
          "name": "to",
          "type": "address"
        },
        {
          "internalType": "uint256",
          "name": "tokenId",
          "type": "uint256"
        }
      ],
      "name": "safeTransferFrom",
      "outputs": [],
      "stateMutability": "nonpayable",
      "type": "function"
    },
    {
      "inputs": [
        {
          "internalType": "address",
          "name": "from",
          "type": "address"
        },
        {
          "internalType": "address",
          "name": "to",
          "type": "address"
        },
        {
          "internalType": "uint256",
          "name": "tokenId",
          "type": "uint256"
        },
        {
          "internalType": "bytes",
          "name": "data",
          "type": "bytes"
        }
      ],
      "name": "safeTransferFrom",
      "outputs": [],
      "stateMutability": "nonpayable",
      "type": "function"
    },
    {
      "inputs": [
        {
          "internalType": "address",
          "name": "operator",
          "type": "address"
        },
        {
          "internalType": "bool",
          "name": "approved",
          "type": "bool"
        }
      ],
      "name": "setApprovalForAll",
      "outputs": [],
      "stateMutability": "nonpayable",
      "type": "function"
    },
    {
      "inputs": [
        {
          "internalType": "bytes4",
          "name": "interfaceId",
          "type": "bytes4"
        }
      ],
      "name": "supportsInterface",
      "outputs": [
        {
          "internalType": "bool",
          "name": "",
          "type": "bool"
        }
      ],
      "stateMutability": "view",
      "type": "function",
      "constant": true
    },
    {
      "inputs": [],
      "name": "symbol",
      "outputs": [
        {
          "internalType": "string",
          "name": "",
          "type": "string"
        }
      ],
      "stateMutability": "view",
      "type": "function",
      "constant": true
    },
    {
      "inputs": [
        {
          "internalType": "uint256",
          "name": "tokenId",
          "type": "uint256"
        }
      ],
      "name": "tokenURI",
      "outputs": [
        {
          "internalType": "string",
          "name": "",
          "type": "string"
        }
      ],
      "stateMutability": "view",
      "type": "function",
      "constant": true
    },
    {
      "inputs": [
        {
          "internalType": "address",
          "name": "from",
          "type": "address"
        },
        {
          "internalType": "address",
          "name": "to",
          "type": "address"
        },
        {
          "internalType": "uint256",
          "name": "tokenId",
          "type": "uint256"
        }
      ],
      "name": "transferFrom",
      "outputs": [],
      "stateMutability": "nonpayable",
      "type": "function"
    },
    {
      "inputs": [
        {
          "internalType": "address",
          "name": "newOwner",
          "type": "address"
        }
      ],
      "name": "transferOwnership",
      "outputs": [],
      "stateMutability": "nonpayable",
      "type": "function"
    },
    {
      "inputs": [
        {
          "internalType": "string",
          "name": "tokenURI",
          "type": "string"
        },
        {
          "internalType": "uint256",
          "name": "price",
          "type": "uint256"
        }
      ],
      "name": "mintToken",
      "outputs": [
        {
          "internalType": "uint256",
          "name": "",
          "type": "uint256"
        }
      ],
      "stateMutability": "payable",
      "type": "function",
      "payable": true
    },
    {
      "inputs": [
        {
          "internalType": "uint256",
          "name": "tokenId",
          "type": "uint256"
        }
      ],
      "name": "getNftItem",
      "outputs": [
        {
          "components": [
            {
              "internalType": "uint256",
              "name": "tokenId",
              "type": "uint256"
            },
            {
              "internalType": "uint256",
              "name": "price",
              "type": "uint256"
            },
            {
              "internalType": "address",
              "name": "creator",
              "type": "address"
            },
            {
              "internalType": "bool",
              "name": "isListed",
              "type": "bool"
            }
          ],
          "internalType": "struct NftMarket.Item",
          "name": "",
          "type": "tuple"
        }
      ],
      "stateMutability": "view",
      "type": "function",
      "constant": true
    },
    {
      "inputs": [],
      "name": "listedItemsCount",
      "outputs": [
        {
          "internalType": "uint256",
          "name": "",
          "type": "uint256"
        }
      ],
      "stateMutability": "view",
      "type": "function",
      "constant": true
    },
    {
      "inputs": [
        {
          "internalType": "uint256",
          "name": "tokenId",
          "type": "uint256"
        }
      ],
      "name": "BuyNFT",
      "outputs": [],
      "stateMutability": "payable",
      "type": "function",
      "payable": true
    },
    {
      "inputs": [],
      "name": "getNFTCount",
      "outputs": [
        {
          "internalType": "uint256",
          "name": "",
          "type": "uint256"
        }
      ],
      "stateMutability": "view",
      "type": "function",
      "constant": true
    },
    {
      "inputs": [
        {
          "internalType": "uint256",
          "name": "index",
          "type": "uint256"
        }
      ],
      "name": "tokenByIndex",
      "outputs": [
        {
          "internalType": "uint256",
          "name": "",
          "type": "uint256"
        }
      ],
      "stateMutability": "view",
      "type": "function",
      "constant": true
    },
    {
      "inputs": [
        {
          "internalType": "address",
          "name": "owner",
          "type": "address"
        },
        {
          "internalType": "uint256",
          "name": "index",
          "type": "uint256"
        }
      ],
      "name": "tokenByOwnedIndex",
      "outputs": [
        {
          "internalType": "uint256",
          "name": "",
          "type": "uint256"
        }
      ],
      "stateMutability": "view",
      "type": "function",
      "constant": true
    },
    {
      "inputs": [
        {
          "internalType": "string",
          "name": "tokenURI",
          "type": "string"
        }
      ],
      "name": "tokenURIExists",
      "outputs": [
        {
          "internalType": "bool",
          "name": "",
          "type": "bool"
        }
      ],
      "stateMutability": "view",
      "type": "function",
      "constant": true
    },
    {
      "inputs": [],
      "name": "getOwnedNfts",
      "outputs": [
        {
          "components": [
            {
              "internalType": "uint256",
              "name": "tokenId",
              "type": "uint256"
            },
            {
              "internalType": "uint256",
              "name": "price",
              "type": "uint256"
            },
            {
              "internalType": "address",
              "name": "creator",
              "type": "address"
            },
            {
              "internalType": "bool",
              "name": "isListed",
              "type": "bool"
            }
          ],
          "internalType": "struct NftMarket.Item[]",
          "name": "",
          "type": "tuple[]"
        }
      ],
      "stateMutability": "view",
      "type": "function",
      "constant": true
    },
    {
      "inputs": [],
      "name": "getAllNFTOnSale",
      "outputs": [
        {
          "components": [
            {
              "internalType": "uint256",
              "name": "tokenId",
              "type": "uint256"
            },
            {
              "internalType": "uint256",
              "name": "price",
              "type": "uint256"
            },
            {
              "internalType": "address",
              "name": "creator",
              "type": "address"
            },
            {
              "internalType": "bool",
              "name": "isListed",
              "type": "bool"
            }
          ],
          "internalType": "struct NftMarket.Item[]",
          "name": "",
          "type": "tuple[]"
        }
      ],
      "stateMutability": "view",
      "type": "function",
      "constant": true
    },
    {
      "inputs": [
        {
          "internalType": "uint256",
          "name": "tokenId",
          "type": "uint256"
        }
      ],
      "name": "burnToken",
      "outputs": [],
      "stateMutability": "nonpayable",
      "type": "function"
    },
    {
      "inputs": [
        {
          "internalType": "uint256",
          "name": "price",
          "type": "uint256"
        }
      ],
      "name": "setListedPrice",
      "outputs": [],
      "stateMutability": "nonpayable",
      "type": "function"
    },
    {
      "inputs": [
        {
          "internalType": "uint256",
          "name": "tokenId",
          "type": "uint256"
        },
        {
          "internalType": "uint256",
          "name": "price",
          "type": "uint256"
        }
      ],
      "name": "placeNftOnSale",
      "outputs": [],
      "stateMutability": "payable",
      "type": "function",
      "payable": true
    }
  ],
  "bytecode": "0x60806040523480156200001157600080fd5b506040518060400160405280600d81526020017f4372656174757265734e667473000000000000000000000000000000000000008152506040518060400160405280600481526020017f434e46540000000000000000000000000000000000000000000000000000000081525081600090816200008f919062000412565b508060019081620000a1919062000412565b505050620000c4620000b8620000ca60201b60201c565b620000d260201b60201c565b620004f9565b600033905090565b6000600760009054906101000a900473ffffffffffffffffffffffffffffffffffffffff16905081600760006101000a81548173ffffffffffffffffffffffffffffffffffffffff021916908373ffffffffffffffffffffffffffffffffffffffff1602179055508173ffffffffffffffffffffffffffffffffffffffff168173ffffffffffffffffffffffffffffffffffffffff167f8be0079c531659141344cd1fd0a4f28419497f9722a3daafe3b4186f6b6457e060405160405180910390a35050565b600081519050919050565b7f4e487b7100000000000000000000000000000000000000000000000000000000600052604160045260246000fd5b7f4e487b7100000000000000000000000000000000000000000000000000000000600052602260045260246000fd5b600060028204905060018216806200021a57607f821691505b60208210810362000230576200022f620001d2565b5b50919050565b60008190508160005260206000209050919050565b60006020601f8301049050919050565b600082821b905092915050565b6000600883026200029a7fffffffffffffffffffffffffffffffffffffffffffffffffffffffffffffffff826200025b565b620002a686836200025b565b95508019841693508086168417925050509392505050565b6000819050919050565b6000819050919050565b6000620002f3620002ed620002e784620002be565b620002c8565b620002be565b9050919050565b6000819050919050565b6200030f83620002d2565b620003276200031e82620002fa565b84845462000268565b825550505050565b600090565b6200033e6200032f565b6200034b81848462000304565b505050565b5b8181101562000373576200036760008262000334565b60018101905062000351565b5050565b601f821115620003c2576200038c8162000236565b62000397846200024b565b81016020851015620003a7578190505b620003bf620003b6856200024b565b83018262000350565b50505b505050565b600082821c905092915050565b6000620003e760001984600802620003c7565b1980831691505092915050565b6000620004028383620003d4565b9150826002028217905092915050565b6200041d8262000198565b67ffffffffffffffff811115620004395762000438620001a3565b5b62000445825462000201565b6200045282828562000377565b600060209050601f8311600181146200048a576000841562000475578287015190505b620004818582620003f4565b865550620004f1565b601f1984166200049a8662000236565b60005b82811015620004c4578489015182556001820191506020850194506020810190506200049d565b86831015620004e45784890151620004e0601f891682620003d4565b8355505b6001600288020188555050505b505050505050565b614a0580620005096000396000f3fe6080604052600436106101c25760003560e01c806370a08231116100f7578063a37365e011610095578063ccb4918d11610064578063ccb4918d14610661578063d4e0968d1461068c578063e985e9c5146106b7578063f2fde38b146106f4576101c2565b8063a37365e0146105af578063b88d4fde146105cb578063c046372c146105f4578063c87b56dd14610624576101c2565b80637b47ec1a116100d15780637b47ec1a146105075780638da5cb5b1461053057806395d89b411461055b578063a22cb46514610586576101c2565b806370a082311461048857806370cbcb43146104c5578063715018a6146104f0576101c2565b806342842e0e11610164578063542796371161013e57806354279637146103a657806358692bea146103d15780636352211e1461040e5780636f1a0af51461044b576101c2565b806342842e0e1461030357806343d32ae71461032c5780634f6ccce714610369576101c2565b8063095ea7b3116101a0578063095ea7b31461026c57806319e770d41461029557806321f422e5146102be57806323b872dd146102da576101c2565b806301ffc9a7146101c757806306fdde0314610204578063081812fc1461022f575b600080fd5b3480156101d357600080fd5b506101ee60048036038101906101e99190613079565b61071d565b6040516101fb91906130c1565b60405180910390f35b34801561021057600080fd5b506102196107ff565b604051610226919061316c565b60405180910390f35b34801561023b57600080fd5b50610256600480360381019061025191906131c4565b610891565b6040516102639190613232565b60405180910390f35b34801561027857600080fd5b50610293600480360381019061028e9190613279565b6108d7565b005b3480156102a157600080fd5b506102bc60048036038101906102b791906131c4565b6109ee565b005b6102d860048036038101906102d391906132b9565b610a3c565b005b3480156102e657600080fd5b5061030160048036038101906102fc91906132f9565b610b74565b005b34801561030f57600080fd5b5061032a600480360381019061032591906132f9565b610bd4565b005b34801561033857600080fd5b50610353600480360381019061034e9190613481565b610bf4565b60405161036091906130c1565b60405180910390f35b34801561037557600080fd5b50610390600480360381019061038b91906131c4565b610c30565b60405161039d91906134d9565b60405180910390f35b3480156103b257600080fd5b506103bb610ca1565b6040516103c891906134d9565b60405180910390f35b3480156103dd57600080fd5b506103f860048036038101906103f39190613279565b610cae565b60405161040591906134d9565b60405180910390f35b34801561041a57600080fd5b50610435600480360381019061043091906131c4565b610d53565b6040516104429190613232565b60405180910390f35b34801561045757600080fd5b50610472600480360381019061046d91906131c4565b610dd9565b60405161047f9190613576565b60405180910390f35b34801561049457600080fd5b506104af60048036038101906104aa9190613591565b610e8b565b6040516104bc91906134d9565b60405180910390f35b3480156104d157600080fd5b506104da610f42565b6040516104e791906136c2565b60405180910390f35b3480156104fc57600080fd5b506105056110a6565b005b34801561051357600080fd5b5061052e600480360381019061052991906131c4565b6110ba565b005b34801561053c57600080fd5b506105456110c6565b6040516105529190613232565b60405180910390f35b34801561056757600080fd5b506105706110f0565b60405161057d919061316c565b60405180910390f35b34801561059257600080fd5b506105ad60048036038101906105a89190613710565b611182565b005b6105c960048036038101906105c491906131c4565b611198565b005b3480156105d757600080fd5b506105f260048036038101906105ed91906137f1565b611300565b005b61060e60048036038101906106099190613874565b611362565b60405161061b91906134d9565b60405180910390f35b34801561063057600080fd5b5061064b600480360381019061064691906131c4565b61142a565b604051610658919061316c565b60405180910390f35b34801561066d57600080fd5b5061067661153c565b60405161068391906134d9565b60405180910390f35b34801561069857600080fd5b506106a161154e565b6040516106ae91906136c2565b60405180910390f35b3480156106c357600080fd5b506106de60048036038101906106d991906138d0565b6116e7565b6040516106eb91906130c1565b60405180910390f35b34801561070057600080fd5b5061071b60048036038101906107169190613591565b61177b565b005b60007f80ac58cd000000000000000000000000000000000000000000000000000000007bffffffffffffffffffffffffffffffffffffffffffffffffffffffff1916827bffffffffffffffffffffffffffffffffffffffffffffffffffffffff191614806107e857507f5b5e139f000000000000000000000000000000000000000000000000000000007bffffffffffffffffffffffffffffffffffffffffffffffffffffffff1916827bffffffffffffffffffffffffffffffffffffffffffffffffffffffff1916145b806107f857506107f7826117fe565b5b9050919050565b60606000805461080e9061393f565b80601f016020809104026020016040519081016040528092919081815260200182805461083a9061393f565b80156108875780601f1061085c57610100808354040283529160200191610887565b820191906000526020600020905b81548152906001019060200180831161086a57829003601f168201915b5050505050905090565b600061089c82611868565b6004600083815260200190815260200160002060009054906101000a900473ffffffffffffffffffffffffffffffffffffffff169050919050565b60006108e282610d53565b90508073ffffffffffffffffffffffffffffffffffffffff168373ffffffffffffffffffffffffffffffffffffffff1603610952576040517f08c379a0000000000000000000000000000000000000000000000000000000008152600401610949906139e2565b60405180910390fd5b8073ffffffffffffffffffffffffffffffffffffffff166109716118b3565b73ffffffffffffffffffffffffffffffffffffffff1614806109a0575061099f8161099a6118b3565b6116e7565b5b6109df576040517f08c379a00000000000000000000000000000000000000000000000000000000081526004016109d690613a74565b60405180910390fd5b6109e983836118bb565b505050565b6109f6611974565b60008111610a39576040517f08c379a0000000000000000000000000000000000000000000000000000000008152600401610a3090613ae0565b60405180910390fd5b50565b3373ffffffffffffffffffffffffffffffffffffffff16610a5c83610d53565b73ffffffffffffffffffffffffffffffffffffffff1614610ab2576040517f08c379a0000000000000000000000000000000000000000000000000000000008152600401610aa990613b4c565b60405180910390fd5b60001515600c600084815260200190815260200160002060020160149054906101000a900460ff16151514610b1c576040517f08c379a0000000000000000000000000000000000000000000000000000000008152600401610b1390613bb8565b60405180910390fd5b6001600c600084815260200190815260200160002060020160146101000a81548160ff02191690831515021790555080600c600084815260200190815260200160002060010181905550610b7060086119f2565b5050565b610b85610b7f6118b3565b82611a08565b610bc4576040517f08c379a0000000000000000000000000000000000000000000000000000000008152600401610bbb90613c4a565b60405180910390fd5b610bcf838383611a9d565b505050565b610bef83838360405180602001604052806000815250611300565b505050565b600060011515600b83604051610c0a9190613ca6565b908152602001604051809103902060009054906101000a900460ff161515149050919050565b6000610c3a610ca1565b8210610c7b576040517f08c379a0000000000000000000000000000000000000000000000000000000008152600401610c7290613d09565b60405180910390fd5b600a8281548110610c8f57610c8e613d29565b5b90600052602060002001549050919050565b6000600a80549050905090565b6000610cb983610e8b565b8210610cfa576040517f08c379a0000000000000000000000000000000000000000000000000000000008152600401610cf190613d09565b60405180910390fd5b600d60008473ffffffffffffffffffffffffffffffffffffffff1673ffffffffffffffffffffffffffffffffffffffff168152602001908152602001600020600083815260200190815260200160002054905092915050565b600080610d5f83611d96565b9050600073ffffffffffffffffffffffffffffffffffffffff168173ffffffffffffffffffffffffffffffffffffffff1603610dd0576040517f08c379a0000000000000000000000000000000000000000000000000000000008152600401610dc790613da4565b60405180910390fd5b80915050919050565b610de1612f70565b600c600083815260200190815260200160002060405180608001604052908160008201548152602001600182015481526020016002820160009054906101000a900473ffffffffffffffffffffffffffffffffffffffff1673ffffffffffffffffffffffffffffffffffffffff1673ffffffffffffffffffffffffffffffffffffffff1681526020016002820160149054906101000a900460ff1615151515815250509050919050565b60008073ffffffffffffffffffffffffffffffffffffffff168273ffffffffffffffffffffffffffffffffffffffff1603610efb576040517f08c379a0000000000000000000000000000000000000000000000000000000008152600401610ef290613e36565b60405180910390fd5b600360008373ffffffffffffffffffffffffffffffffffffffff1673ffffffffffffffffffffffffffffffffffffffff168152602001908152602001600020549050919050565b60606000610f4f33610e8b565b905060008167ffffffffffffffff811115610f6d57610f6c613356565b5b604051908082528060200260200182016040528015610fa657816020015b610f93612f70565b815260200190600190039081610f8b5790505b50905060005b8281101561109d576000610fc03383610cae565b90506000600c600083815260200190815260200160002090508060405180608001604052908160008201548152602001600182015481526020016002820160009054906101000a900473ffffffffffffffffffffffffffffffffffffffff1673ffffffffffffffffffffffffffffffffffffffff1673ffffffffffffffffffffffffffffffffffffffff1681526020016002820160149054906101000a900460ff16151515158152505084848151811061107d5761107c613d29565b5b60200260200101819052505050808061109590613e85565b915050610fac565b50809250505090565b6110ae611974565b6110b86000611dd3565b565b6110c381611e99565b50565b6000600760009054906101000a900473ffffffffffffffffffffffffffffffffffffffff16905090565b6060600180546110ff9061393f565b80601f016020809104026020016040519081016040528092919081815260200182805461112b9061393f565b80156111785780601f1061114d57610100808354040283529160200191611178565b820191906000526020600020905b81548152906001019060200180831161115b57829003601f168201915b5050505050905090565b61119461118d6118b3565b8383611eec565b5050565b6000600c600083815260200190815260200160002060010154905060006111be83610d53565b9050813414611202576040517f08c379a00000000000000000000000000000000000000000000000000000000081526004016111f990613f19565b60405180910390fd5b8073ffffffffffffffffffffffffffffffffffffffff163373ffffffffffffffffffffffffffffffffffffffff1603611270576040517f08c379a000000000000000000000000000000000000000000000000000000000815260040161126790613f85565b60405180910390fd5b6000600c600085815260200190815260200160002060020160146101000a81548160ff0219169083151502179055506112a96008612058565b6112b4813385611a9d565b8073ffffffffffffffffffffffffffffffffffffffff166108fc349081150290604051600060405180830381858888f193505050501580156112fa573d6000803e3d6000fd5b50505050565b61131161130b6118b3565b83611a08565b611350576040517f08c379a000000000000000000000000000000000000000000000000000000000815260040161134790613c4a565b60405180910390fd5b61135c848484846120b4565b50505050565b600061136d83610bf4565b156113ad576040517f08c379a00000000000000000000000000000000000000000000000000000000081526004016113a490613ff1565b60405180910390fd5b6113b760096119f2565b6113c160086119f2565b600060096000015490506113d53382612110565b6113df818561212e565b6113e9818461219b565b6001600b856040516113fb9190613ca6565b908152602001604051809103902060006101000a81548160ff0219169083151502179055508091505092915050565b606061143582611868565b60006006600084815260200190815260200160002080546114559061393f565b80601f01602080910402602001604051908101604052809291908181526020018280546114819061393f565b80156114ce5780601f106114a3576101008083540402835291602001916114ce565b820191906000526020600020905b8154815290600101906020018083116114b157829003601f168201915b5050505050905060006114df6122eb565b905060008151036114f4578192505050611537565b600082511115611529578082604051602001611511929190614011565b60405160208183030381529060405292505050611537565b61153284612302565b925050505b919050565b60008060086000015490508091505090565b6060600061155a610ca1565b9050600080611569600861236a565b67ffffffffffffffff81111561158257611581613356565b5b6040519080825280602002602001820160405280156115bb57816020015b6115a8612f70565b8152602001906001900390816115a05790505b50905060005b838110156116dd5760006115d482610c30565b90506000600c60008381526020019081526020016000209050600115158160020160149054906101000a900460ff161515036116c8578060405180608001604052908160008201548152602001600182015481526020016002820160009054906101000a900473ffffffffffffffffffffffffffffffffffffffff1673ffffffffffffffffffffffffffffffffffffffff1673ffffffffffffffffffffffffffffffffffffffff1681526020016002820160149054906101000a900460ff1615151515815250508486815181106116ae576116ad613d29565b5b602002602001018190525084806116c490613e85565b9550505b505080806116d590613e85565b9150506115c1565b5080935050505090565b6000600560008473ffffffffffffffffffffffffffffffffffffffff1673ffffffffffffffffffffffffffffffffffffffff16815260200190815260200160002060008373ffffffffffffffffffffffffffffffffffffffff1673ffffffffffffffffffffffffffffffffffffffff16815260200190815260200160002060009054906101000a900460ff16905092915050565b611783611974565b600073ffffffffffffffffffffffffffffffffffffffff168173ffffffffffffffffffffffffffffffffffffffff16036117f2576040517f08c379a00000000000000000000000000000000000000000000000000000000081526004016117e9906140a7565b60405180910390fd5b6117fb81611dd3565b50565b60007f01ffc9a7000000000000000000000000000000000000000000000000000000007bffffffffffffffffffffffffffffffffffffffffffffffffffffffff1916827bffffffffffffffffffffffffffffffffffffffffffffffffffffffff1916149050919050565b61187181612378565b6118b0576040517f08c379a00000000000000000000000000000000000000000000000000000000081526004016118a790613da4565b60405180910390fd5b50565b600033905090565b816004600083815260200190815260200160002060006101000a81548173ffffffffffffffffffffffffffffffffffffffff021916908373ffffffffffffffffffffffffffffffffffffffff160217905550808273ffffffffffffffffffffffffffffffffffffffff1661192e83610d53565b73ffffffffffffffffffffffffffffffffffffffff167f8c5be1e5ebec7d5bd14f71427d1e84f3dd0314c0f7b2291e5b200ac8c7c3b92560405160405180910390a45050565b61197c6118b3565b73ffffffffffffffffffffffffffffffffffffffff1661199a6110c6565b73ffffffffffffffffffffffffffffffffffffffff16146119f0576040517f08c379a00000000000000000000000000000000000000000000000000000000081526004016119e790614113565b60405180910390fd5b565b6001816000016000828254019250508190555050565b600080611a1483610d53565b90508073ffffffffffffffffffffffffffffffffffffffff168473ffffffffffffffffffffffffffffffffffffffff161480611a565750611a5581856116e7565b5b80611a9457508373ffffffffffffffffffffffffffffffffffffffff16611a7c84610891565b73ffffffffffffffffffffffffffffffffffffffff16145b91505092915050565b8273ffffffffffffffffffffffffffffffffffffffff16611abd82610d53565b73ffffffffffffffffffffffffffffffffffffffff1614611b13576040517f08c379a0000000000000000000000000000000000000000000000000000000008152600401611b0a906141a5565b60405180910390fd5b600073ffffffffffffffffffffffffffffffffffffffff168273ffffffffffffffffffffffffffffffffffffffff1603611b82576040517f08c379a0000000000000000000000000000000000000000000000000000000008152600401611b7990614237565b60405180910390fd5b611b8f83838360016123b9565b8273ffffffffffffffffffffffffffffffffffffffff16611baf82610d53565b73ffffffffffffffffffffffffffffffffffffffff1614611c05576040517f08c379a0000000000000000000000000000000000000000000000000000000008152600401611bfc906141a5565b60405180910390fd5b6004600082815260200190815260200160002060006101000a81549073ffffffffffffffffffffffffffffffffffffffff02191690556001600360008573ffffffffffffffffffffffffffffffffffffffff1673ffffffffffffffffffffffffffffffffffffffff168152602001908152602001600020600082825403925050819055506001600360008473ffffffffffffffffffffffffffffffffffffffff1673ffffffffffffffffffffffffffffffffffffffff16815260200190815260200160002060008282540192505081905550816002600083815260200190815260200160002060006101000a81548173ffffffffffffffffffffffffffffffffffffffff021916908373ffffffffffffffffffffffffffffffffffffffff160217905550808273ffffffffffffffffffffffffffffffffffffffff168473ffffffffffffffffffffffffffffffffffffffff167fddf252ad1be2c89b69c2b068fc378daa952ba7f163c4a11628f55a4df523b3ef60405160405180910390a4611d9183838360016124cd565b505050565b60006002600083815260200190815260200160002060009054906101000a900473ffffffffffffffffffffffffffffffffffffffff169050919050565b6000600760009054906101000a900473ffffffffffffffffffffffffffffffffffffffff16905081600760006101000a81548173ffffffffffffffffffffffffffffffffffffffff021916908373ffffffffffffffffffffffffffffffffffffffff1602179055508173ffffffffffffffffffffffffffffffffffffffff168173ffffffffffffffffffffffffffffffffffffffff167f8be0079c531659141344cd1fd0a4f28419497f9722a3daafe3b4186f6b6457e060405160405180910390a35050565b611ea2816124d3565b6000600660008381526020019081526020016000208054611ec29061393f565b905014611ee957600660008281526020019081526020016000206000611ee89190612fb0565b5b50565b8173ffffffffffffffffffffffffffffffffffffffff168373ffffffffffffffffffffffffffffffffffffffff1603611f5a576040517f08c379a0000000000000000000000000000000000000000000000000000000008152600401611f51906142a3565b60405180910390fd5b80600560008573ffffffffffffffffffffffffffffffffffffffff1673ffffffffffffffffffffffffffffffffffffffff16815260200190815260200160002060008473ffffffffffffffffffffffffffffffffffffffff1673ffffffffffffffffffffffffffffffffffffffff16815260200190815260200160002060006101000a81548160ff0219169083151502179055508173ffffffffffffffffffffffffffffffffffffffff168373ffffffffffffffffffffffffffffffffffffffff167f17307eab39ab6107e8899845ad3d59bd9653f200f220920489ca2b5937696c318360405161204b91906130c1565b60405180910390a3505050565b600081600001549050600081116120a4576040517f08c379a000000000000000000000000000000000000000000000000000000000815260040161209b9061430f565b60405180910390fd5b6001810382600001819055505050565b6120bf848484611a9d565b6120cb84848484612621565b61210a576040517f08c379a0000000000000000000000000000000000000000000000000000000008152600401612101906143a1565b60405180910390fd5b50505050565b61212a8282604051806020016040528060008152506127a8565b5050565b61213782612378565b612176576040517f08c379a000000000000000000000000000000000000000000000000000000000815260040161216d90614433565b60405180910390fd5b8060066000848152602001908152602001600020908161219691906145ff565b505050565b600081116121de576040517f08c379a00000000000000000000000000000000000000000000000000000000081526004016121d59061471d565b60405180910390fd5b60405180608001604052808381526020018281526020013373ffffffffffffffffffffffffffffffffffffffff16815260200160011515815250600c6000848152602001908152602001600020600082015181600001556020820151816001015560408201518160020160006101000a81548173ffffffffffffffffffffffffffffffffffffffff021916908373ffffffffffffffffffffffffffffffffffffffff16021790555060608201518160020160146101000a81548160ff0219169083151502179055509050507ffff7c517dc4ea22cc15bd2e56257953140b12fbb106448328f6cdaa5905e74c982823360016040516122df949392919061473d565b60405180910390a15050565b606060405180602001604052806000815250905090565b606061230d82611868565b60006123176122eb565b905060008151116123375760405180602001604052806000815250612362565b8061234184612803565b604051602001612352929190614011565b6040516020818303038152906040525b915050919050565b600081600001549050919050565b60008073ffffffffffffffffffffffffffffffffffffffff1661239a83611d96565b73ffffffffffffffffffffffffffffffffffffffff1614159050919050565b6123c5848484846128d1565b600073ffffffffffffffffffffffffffffffffffffffff168473ffffffffffffffffffffffffffffffffffffffff160361240757612402826128d7565b612446565b8273ffffffffffffffffffffffffffffffffffffffff168473ffffffffffffffffffffffffffffffffffffffff1614612445576124448483612920565b5b5b600073ffffffffffffffffffffffffffffffffffffffff168373ffffffffffffffffffffffffffffffffffffffff16036124885761248382612a8d565b6124c7565b8373ffffffffffffffffffffffffffffffffffffffff168373ffffffffffffffffffffffffffffffffffffffff16146124c6576124c58383612b5e565b5b5b50505050565b50505050565b60006124de82610d53565b90506124ee8160008460016123b9565b6124f782610d53565b90506004600083815260200190815260200160002060006101000a81549073ffffffffffffffffffffffffffffffffffffffff02191690556001600360008373ffffffffffffffffffffffffffffffffffffffff1673ffffffffffffffffffffffffffffffffffffffff168152602001908152602001600020600082825403925050819055506002600083815260200190815260200160002060006101000a81549073ffffffffffffffffffffffffffffffffffffffff021916905581600073ffffffffffffffffffffffffffffffffffffffff168273ffffffffffffffffffffffffffffffffffffffff167fddf252ad1be2c89b69c2b068fc378daa952ba7f163c4a11628f55a4df523b3ef60405160405180910390a461261d8160008460016124cd565b5050565b60006126428473ffffffffffffffffffffffffffffffffffffffff16612bdd565b1561279b578373ffffffffffffffffffffffffffffffffffffffff1663150b7a0261266b6118b3565b8786866040518563ffffffff1660e01b815260040161268d94939291906147d7565b6020604051808303816000875af19250505080156126c957506040513d601f19601f820116820180604052508101906126c69190614838565b60015b61274b573d80600081146126f9576040519150601f19603f3d011682016040523d82523d6000602084013e6126fe565b606091505b506000815103612743576040517f08c379a000000000000000000000000000000000000000000000000000000000815260040161273a906143a1565b60405180910390fd5b805181602001fd5b63150b7a0260e01b7bffffffffffffffffffffffffffffffffffffffffffffffffffffffff1916817bffffffffffffffffffffffffffffffffffffffffffffffffffffffff1916149150506127a0565b600190505b949350505050565b6127b28383612c00565b6127bf6000848484612621565b6127fe576040517f08c379a00000000000000000000000000000000000000000000000000000000081526004016127f5906143a1565b60405180910390fd5b505050565b60606000600161281284612e1d565b01905060008167ffffffffffffffff81111561283157612830613356565b5b6040519080825280601f01601f1916602001820160405280156128635781602001600182028036833780820191505090505b509050600082602001820190505b6001156128c6578080600190039150507f3031323334353637383961626364656600000000000000000000000000000000600a86061a8153600a85816128ba576128b9614865565b5b04945060008503612871575b819350505050919050565b50505050565b600a80549050600f600083815260200190815260200160002081905550600a81908060018154018082558091505060019003906000526020600020016000909190919091505550565b6000600161292d84610e8b565b6129379190614894565b90506000600e6000848152602001908152602001600020549050818114612a1c576000600d60008673ffffffffffffffffffffffffffffffffffffffff1673ffffffffffffffffffffffffffffffffffffffff168152602001908152602001600020600084815260200190815260200160002054905080600d60008773ffffffffffffffffffffffffffffffffffffffff1673ffffffffffffffffffffffffffffffffffffffff16815260200190815260200160002060008481526020019081526020016000208190555081600e600083815260200190815260200160002081905550505b600e600084815260200190815260200160002060009055600d60008573ffffffffffffffffffffffffffffffffffffffff1673ffffffffffffffffffffffffffffffffffffffff16815260200190815260200160002060008381526020019081526020016000206000905550505050565b60006001600a80549050612aa19190614894565b90506000600f60008481526020019081526020016000205490506000600a8381548110612ad157612ad0613d29565b5b9060005260206000200154905080600a8381548110612af357612af2613d29565b5b906000526020600020018190555081600f600083815260200190815260200160002081905550600f600085815260200190815260200160002060009055600a805480612b4257612b416148c8565b5b6001900381819060005260206000200160009055905550505050565b6000612b6983610e8b565b905081600d60008573ffffffffffffffffffffffffffffffffffffffff1673ffffffffffffffffffffffffffffffffffffffff16815260200190815260200160002060008381526020019081526020016000208190555080600e600084815260200190815260200160002081905550505050565b6000808273ffffffffffffffffffffffffffffffffffffffff163b119050919050565b600073ffffffffffffffffffffffffffffffffffffffff168273ffffffffffffffffffffffffffffffffffffffff1603612c6f576040517f08c379a0000000000000000000000000000000000000000000000000000000008152600401612c6690614943565b60405180910390fd5b612c7881612378565b15612cb8576040517f08c379a0000000000000000000000000000000000000000000000000000000008152600401612caf906149af565b60405180910390fd5b612cc66000838360016123b9565b612ccf81612378565b15612d0f576040517f08c379a0000000000000000000000000000000000000000000000000000000008152600401612d06906149af565b60405180910390fd5b6001600360008473ffffffffffffffffffffffffffffffffffffffff1673ffffffffffffffffffffffffffffffffffffffff16815260200190815260200160002060008282540192505081905550816002600083815260200190815260200160002060006101000a81548173ffffffffffffffffffffffffffffffffffffffff021916908373ffffffffffffffffffffffffffffffffffffffff160217905550808273ffffffffffffffffffffffffffffffffffffffff16600073ffffffffffffffffffffffffffffffffffffffff167fddf252ad1be2c89b69c2b068fc378daa952ba7f163c4a11628f55a4df523b3ef60405160405180910390a4612e196000838360016124cd565b5050565b600080600090507a184f03e93ff9f4daa797ed6e38ed64bf6a1f0100000000000000008310612e7b577a184f03e93ff9f4daa797ed6e38ed64bf6a1f0100000000000000008381612e7157612e70614865565b5b0492506040810190505b6d04ee2d6d415b85acef81000000008310612eb8576d04ee2d6d415b85acef81000000008381612eae57612ead614865565b5b0492506020810190505b662386f26fc100008310612ee757662386f26fc100008381612edd57612edc614865565b5b0492506010810190505b6305f5e1008310612f10576305f5e1008381612f0657612f05614865565b5b0492506008810190505b6127108310612f35576127108381612f2b57612f2a614865565b5b0492506004810190505b60648310612f585760648381612f4e57612f4d614865565b5b0492506002810190505b600a8310612f67576001810190505b80915050919050565b60405180608001604052806000815260200160008152602001600073ffffffffffffffffffffffffffffffffffffffff1681526020016000151581525090565b508054612fbc9061393f565b6000825580601f10612fce5750612fed565b601f016020900490600052602060002090810190612fec9190612ff0565b5b50565b5b80821115613009576000816000905550600101612ff1565b5090565b6000604051905090565b600080fd5b600080fd5b60007fffffffff0000000000000000000000000000000000000000000000000000000082169050919050565b61305681613021565b811461306157600080fd5b50565b6000813590506130738161304d565b92915050565b60006020828403121561308f5761308e613017565b5b600061309d84828501613064565b91505092915050565b60008115159050919050565b6130bb816130a6565b82525050565b60006020820190506130d660008301846130b2565b92915050565b600081519050919050565b600082825260208201905092915050565b60005b838110156131165780820151818401526020810190506130fb565b60008484015250505050565b6000601f19601f8301169050919050565b600061313e826130dc565b61314881856130e7565b93506131588185602086016130f8565b61316181613122565b840191505092915050565b600060208201905081810360008301526131868184613133565b905092915050565b6000819050919050565b6131a18161318e565b81146131ac57600080fd5b50565b6000813590506131be81613198565b92915050565b6000602082840312156131da576131d9613017565b5b60006131e8848285016131af565b91505092915050565b600073ffffffffffffffffffffffffffffffffffffffff82169050919050565b600061321c826131f1565b9050919050565b61322c81613211565b82525050565b60006020820190506132476000830184613223565b92915050565b61325681613211565b811461326157600080fd5b50565b6000813590506132738161324d565b92915050565b600080604083850312156132905761328f613017565b5b600061329e85828601613264565b92505060206132af858286016131af565b9150509250929050565b600080604083850312156132d0576132cf613017565b5b60006132de858286016131af565b92505060206132ef858286016131af565b9150509250929050565b60008060006060848603121561331257613311613017565b5b600061332086828701613264565b935050602061333186828701613264565b9250506040613342868287016131af565b9150509250925092565b600080fd5b600080fd5b7f4e487b7100000000000000000000000000000000000000000000000000000000600052604160045260246000fd5b61338e82613122565b810181811067ffffffffffffffff821117156133ad576133ac613356565b5b80604052505050565b60006133c061300d565b90506133cc8282613385565b919050565b600067ffffffffffffffff8211156133ec576133eb613356565b5b6133f582613122565b9050602081019050919050565b82818337600083830152505050565b600061342461341f846133d1565b6133b6565b9050828152602081018484840111156134405761343f613351565b5b61344b848285613402565b509392505050565b600082601f8301126134685761346761334c565b5b8135613478848260208601613411565b91505092915050565b60006020828403121561349757613496613017565b5b600082013567ffffffffffffffff8111156134b5576134b461301c565b5b6134c184828501613453565b91505092915050565b6134d38161318e565b82525050565b60006020820190506134ee60008301846134ca565b92915050565b6134fd8161318e565b82525050565b61350c81613211565b82525050565b61351b816130a6565b82525050565b60808201600082015161353760008501826134f4565b50602082015161354a60208501826134f4565b50604082015161355d6040850182613503565b5060608201516135706060850182613512565b50505050565b600060808201905061358b6000830184613521565b92915050565b6000602082840312156135a7576135a6613017565b5b60006135b584828501613264565b91505092915050565b600081519050919050565b600082825260208201905092915050565b6000819050602082019050919050565b60808201600082015161360060008501826134f4565b50602082015161361360208501826134f4565b5060408201516136266040850182613503565b5060608201516136396060850182613512565b50505050565b600061364b83836135ea565b60808301905092915050565b6000602082019050919050565b600061366f826135be565b61367981856135c9565b9350613684836135da565b8060005b838110156136b557815161369c888261363f565b97506136a783613657565b925050600181019050613688565b5085935050505092915050565b600060208201905081810360008301526136dc8184613664565b905092915050565b6136ed816130a6565b81146136f857600080fd5b50565b60008135905061370a816136e4565b92915050565b6000806040838503121561372757613726613017565b5b600061373585828601613264565b9250506020613746858286016136fb565b9150509250929050565b600067ffffffffffffffff82111561376b5761376a613356565b5b61377482613122565b9050602081019050919050565b600061379461378f84613750565b6133b6565b9050828152602081018484840111156137b0576137af613351565b5b6137bb848285613402565b509392505050565b600082601f8301126137d8576137d761334c565b5b81356137e8848260208601613781565b91505092915050565b6000806000806080858703121561380b5761380a613017565b5b600061381987828801613264565b945050602061382a87828801613264565b935050604061383b878288016131af565b925050606085013567ffffffffffffffff81111561385c5761385b61301c565b5b613868878288016137c3565b91505092959194509250565b6000806040838503121561388b5761388a613017565b5b600083013567ffffffffffffffff8111156138a9576138a861301c565b5b6138b585828601613453565b92505060206138c6858286016131af565b9150509250929050565b600080604083850312156138e7576138e6613017565b5b60006138f585828601613264565b925050602061390685828601613264565b9150509250929050565b7f4e487b7100000000000000000000000000000000000000000000000000000000600052602260045260246000fd5b6000600282049050600182168061395757607f821691505b60208210810361396a57613969613910565b5b50919050565b7f4552433732313a20617070726f76616c20746f2063757272656e74206f776e6560008201527f7200000000000000000000000000000000000000000000000000000000000000602082015250565b60006139cc6021836130e7565b91506139d782613970565b604082019050919050565b600060208201905081810360008301526139fb816139bf565b9050919050565b7f4552433732313a20617070726f76652063616c6c6572206973206e6f7420746f60008201527f6b656e206f776e6572206f7220617070726f76656420666f7220616c6c000000602082015250565b6000613a5e603d836130e7565b9150613a6982613a02565b604082019050919050565b60006020820190508181036000830152613a8d81613a51565b9050919050565b7f5072696365206d757374206265203e2030000000000000000000000000000000600082015250565b6000613aca6011836130e7565b9150613ad582613a94565b602082019050919050565b60006020820190508181036000830152613af981613abd565b9050919050565b7f596f7520617265206e6f7420746865204e4654206f776e657221000000000000600082015250565b6000613b36601a836130e7565b9150613b4182613b00565b602082019050919050565b60006020820190508181036000830152613b6581613b29565b9050919050565b7f4e4654206973206f6e2073616c65210000000000000000000000000000000000600082015250565b6000613ba2600f836130e7565b9150613bad82613b6c565b602082019050919050565b60006020820190508181036000830152613bd181613b95565b9050919050565b7f4552433732313a2063616c6c6572206973206e6f7420746f6b656e206f776e6560008201527f72206f7220617070726f76656400000000000000000000000000000000000000602082015250565b6000613c34602d836130e7565b9150613c3f82613bd8565b604082019050919050565b60006020820190508181036000830152613c6381613c27565b9050919050565b600081905092915050565b6000613c80826130dc565b613c8a8185613c6a565b9350613c9a8185602086016130f8565b80840191505092915050565b6000613cb28284613c75565b915081905092915050565b7f696e646578206973206f7574206f6620626f756e640000000000000000000000600082015250565b6000613cf36015836130e7565b9150613cfe82613cbd565b602082019050919050565b60006020820190508181036000830152613d2281613ce6565b9050919050565b7f4e487b7100000000000000000000000000000000000000000000000000000000600052603260045260246000fd5b7f4552433732313a20696e76616c696420746f6b656e2049440000000000000000600082015250565b6000613d8e6018836130e7565b9150613d9982613d58565b602082019050919050565b60006020820190508181036000830152613dbd81613d81565b9050919050565b7f4552433732313a2061646472657373207a65726f206973206e6f74206120766160008201527f6c6964206f776e65720000000000000000000000000000000000000000000000602082015250565b6000613e206029836130e7565b9150613e2b82613dc4565b604082019050919050565b60006020820190508181036000830152613e4f81613e13565b9050919050565b7f4e487b7100000000000000000000000000000000000000000000000000000000600052601160045260246000fd5b6000613e908261318e565b91507fffffffffffffffffffffffffffffffffffffffffffffffffffffffffffffffff8203613ec257613ec1613e56565b5b600182019050919050565b7f506c65617365207375626d697420746865207072696365000000000000000000600082015250565b6000613f036017836130e7565b9150613f0e82613ecd565b602082019050919050565b60006020820190508181036000830152613f3281613ef6565b9050919050565b7f596f7520616c7265616479206f776e2074686973204e46540000000000000000600082015250565b6000613f6f6018836130e7565b9150613f7a82613f39565b602082019050919050565b60006020820190508181036000830152613f9e81613f62565b9050919050565b7f746f6b656e205552492069732065786973746564000000000000000000000000600082015250565b6000613fdb6014836130e7565b9150613fe682613fa5565b602082019050919050565b6000602082019050818103600083015261400a81613fce565b9050919050565b600061401d8285613c75565b91506140298284613c75565b91508190509392505050565b7f4f776e61626c653a206e6577206f776e657220697320746865207a65726f206160008201527f6464726573730000000000000000000000000000000000000000000000000000602082015250565b60006140916026836130e7565b915061409c82614035565b604082019050919050565b600060208201905081810360008301526140c081614084565b9050919050565b7f4f776e61626c653a2063616c6c6572206973206e6f7420746865206f776e6572600082015250565b60006140fd6020836130e7565b9150614108826140c7565b602082019050919050565b6000602082019050818103600083015261412c816140f0565b9050919050565b7f4552433732313a207472616e736665722066726f6d20696e636f72726563742060008201527f6f776e6572000000000000000000000000000000000000000000000000000000602082015250565b600061418f6025836130e7565b915061419a82614133565b604082019050919050565b600060208201905081810360008301526141be81614182565b9050919050565b7f4552433732313a207472616e7366657220746f20746865207a65726f2061646460008201527f7265737300000000000000000000000000000000000000000000000000000000602082015250565b60006142216024836130e7565b915061422c826141c5565b604082019050919050565b6000602082019050818103600083015261425081614214565b9050919050565b7f4552433732313a20617070726f766520746f2063616c6c657200000000000000600082015250565b600061428d6019836130e7565b915061429882614257565b602082019050919050565b600060208201905081810360008301526142bc81614280565b9050919050565b7f436f756e7465723a2064656372656d656e74206f766572666c6f770000000000600082015250565b60006142f9601b836130e7565b9150614304826142c3565b602082019050919050565b60006020820190508181036000830152614328816142ec565b9050919050565b7f4552433732313a207472616e7366657220746f206e6f6e20455243373231526560008201527f63656976657220696d706c656d656e7465720000000000000000000000000000602082015250565b600061438b6032836130e7565b91506143968261432f565b604082019050919050565b600060208201905081810360008301526143ba8161437e565b9050919050565b7f45524337323155524953746f726167653a2055524920736574206f66206e6f6e60008201527f6578697374656e7420746f6b656e000000000000000000000000000000000000602082015250565b600061441d602e836130e7565b9150614428826143c1565b604082019050919050565b6000602082019050818103600083015261444c81614410565b9050919050565b60008190508160005260206000209050919050565b60006020601f8301049050919050565b600082821b905092915050565b6000600883026144b57fffffffffffffffffffffffffffffffffffffffffffffffffffffffffffffffff82614478565b6144bf8683614478565b95508019841693508086168417925050509392505050565b6000819050919050565b60006144fc6144f76144f28461318e565b6144d7565b61318e565b9050919050565b6000819050919050565b614516836144e1565b61452a61452282614503565b848454614485565b825550505050565b600090565b61453f614532565b61454a81848461450d565b505050565b5b8181101561456e57614563600082614537565b600181019050614550565b5050565b601f8211156145b35761458481614453565b61458d84614468565b8101602085101561459c578190505b6145b06145a885614468565b83018261454f565b50505b505050565b600082821c905092915050565b60006145d6600019846008026145b8565b1980831691505092915050565b60006145ef83836145c5565b9150826002028217905092915050565b614608826130dc565b67ffffffffffffffff81111561462157614620613356565b5b61462b825461393f565b614636828285614572565b600060209050601f8311600181146146695760008415614657578287015190505b61466185826145e3565b8655506146c9565b601f19841661467786614453565b60005b8281101561469f5784890151825560018201915060208501945060208101905061467a565b868310156146bc57848901516146b8601f8916826145c5565b8355505b6001600288020188555050505b505050505050565b7f5072696365206d757374206265206174206c6561737420312077656900000000600082015250565b6000614707601c836130e7565b9150614712826146d1565b602082019050919050565b60006020820190508181036000830152614736816146fa565b9050919050565b600060808201905061475260008301876134ca565b61475f60208301866134ca565b61476c6040830185613223565b61477960608301846130b2565b95945050505050565b600081519050919050565b600082825260208201905092915050565b60006147a982614782565b6147b3818561478d565b93506147c38185602086016130f8565b6147cc81613122565b840191505092915050565b60006080820190506147ec6000830187613223565b6147f96020830186613223565b61480660408301856134ca565b8181036060830152614818818461479e565b905095945050505050565b6000815190506148328161304d565b92915050565b60006020828403121561484e5761484d613017565b5b600061485c84828501614823565b91505092915050565b7f4e487b7100000000000000000000000000000000000000000000000000000000600052601260045260246000fd5b600061489f8261318e565b91506148aa8361318e565b92508282039050818111156148c2576148c1613e56565b5b92915050565b7f4e487b7100000000000000000000000000000000000000000000000000000000600052603160045260246000fd5b7f4552433732313a206d696e7420746f20746865207a65726f2061646472657373600082015250565b600061492d6020836130e7565b9150614938826148f7565b602082019050919050565b6000602082019050818103600083015261495c81614920565b9050919050565b7f4552433732313a20746f6b656e20616c7265616479206d696e74656400000000600082015250565b6000614999601c836130e7565b91506149a482614963565b602082019050919050565b600060208201905081810360008301526149c88161498c565b905091905056fea264697066735822122061d591b3f36b044492e6d51b33e1ecb76661532a4cff9cee39a5c4cd5425432064736f6c63430008130033",
  "immutableReferences": {},
  "source": "// SPDX-License-Identifier: MIT\r\npragma solidity >=0.4.22 <0.9.0;\r\n\r\nimport \"@openzeppelin/contracts/token/ERC721/extensions/ERC721URIStorage.sol\";\r\nimport \"@openzeppelin/contracts/utils/Counters.sol\";\r\nimport \"@openzeppelin/contracts/access/Ownable.sol\";\r\n\r\n\r\n\r\n\r\ncontract NftMarket is ERC721URIStorage,Ownable {\r\n    using Counters for Counters.Counter;\r\n    Counters.Counter private _Items;\r\n    Counters.Counter private _TokenIds ;\r\n\r\n    //uint public _ListedPrice = 0.025 ether;\r\n\r\n    //all tokenid in nft\r\n    uint256[] private _allNfts;\r\n\r\n    mapping(string => bool) private _usedTokenURIs;\r\n    mapping(uint => Item) private _idToNftItem;\r\n\r\n    //the No.n token that user has\r\n    mapping(address => mapping(uint=>uint))private _ownedTokens;\r\n    mapping(uint=>uint)private _idToOwnedIndex;\r\n\r\n\r\n    mapping(uint=>uint) private _idToNftIndex;\r\n\r\n    struct Item{\r\n        uint tokenId;\r\n        uint price;\r\n        address creator;\r\n        bool isListed;\r\n    }\r\n\r\n    event NFTCreation(\r\n        uint tokenId,\r\n        uint price,\r\n        address creator,\r\n        bool isListed\r\n    );\r\n\r\n    constructor() ERC721 (\"CreaturesNfts\",\"CNFT\"){\r\n        \r\n    }\r\n    function mintToken(string memory tokenURI,uint price) public payable returns(uint){\r\n        require(!tokenURIExists(tokenURI),\"token URI is existed\");\r\n        //require(msg.value == _ListedPrice,\"payment is not equal to price listed\");\r\n        _TokenIds.increment();\r\n        _Items.increment();\r\n\r\n    \r\n        uint _TokenId = _TokenIds._value;\r\n\r\n        _safeMint(msg.sender, _TokenId);\r\n        _setTokenURI(_TokenId,tokenURI);\r\n        _createItem(_TokenId,price);\r\n        _usedTokenURIs[tokenURI] = true;\r\n\r\n        return _TokenId;\r\n    }\r\n    function _createItem(\r\n        uint tokenId,\r\n        uint price)private\r\n        {\r\n            require(price>0,\"Price must be at least 1 wei\");\r\n            _idToNftItem[tokenId] = Item(tokenId,price,msg.sender,true);\r\n            emit NFTCreation(tokenId,price,msg.sender,true);\r\n        }\r\n\r\n    function getNftItem(uint tokenId) public view returns(Item memory){\r\n        return _idToNftItem[tokenId];\r\n    }\r\n\r\n    function listedItemsCount() public view returns(uint){\r\n        uint _Item = _Items._value;\r\n\r\n        return _Item;\r\n    }\r\n\r\n    function BuyNFT(uint tokenId)public payable{\r\n        uint price = _idToNftItem[tokenId].price;\r\n        address owner = ERC721.ownerOf(tokenId);\r\n\r\n        require(msg.value == price,\"Please submit the price\");\r\n        require(msg.sender!= owner,\"You already own this NFT\");\r\n\r\n        _idToNftItem[tokenId].isListed = false;\r\n        _Items.decrement();\r\n\r\n        _transfer(owner, msg.sender, tokenId);\r\n        payable(owner).transfer(msg.value);\r\n\r\n\r\n    }\r\n\r\n    function getNFTCount() public view returns(uint){\r\n        return _allNfts.length;\r\n    }\r\n\r\n    function tokenByIndex(uint index)public view returns(uint){\r\n        require(index<getNFTCount(),\"index is out of bound\");\r\n        return _allNfts[index];\r\n    }\r\n\r\n    function tokenByOwnedIndex(address owner,uint index)public view returns(uint){\r\n        require(index<ERC721.balanceOf(owner),\"index is out of bound\");\r\n        return _ownedTokens[owner][index];\r\n    }\r\n\r\n    function tokenURIExists(string memory tokenURI) public view returns(bool){\r\n        return _usedTokenURIs[tokenURI] == true;\r\n    }\r\n\r\n    function getOwnedNfts() public view returns(Item[] memory){\r\n        uint ownedItemsCount = ERC721.balanceOf(msg.sender);\r\n        Item[] memory items = new Item[](ownedItemsCount);\r\n\r\n        for(uint i=0;i<ownedItemsCount;i++){\r\n            uint tokenId = tokenByOwnedIndex(msg.sender,i);\r\n            Item storage item = _idToNftItem[tokenId];\r\n            items[i] = item;\r\n        }\r\n\r\n        return items;\r\n    }\r\n\r\n\r\n    function _beforeTokenTransfer(address from,address to, uint256 tokenId,uint256 batchSize)internal virtual override{\r\n        super._beforeTokenTransfer(from,to,tokenId,batchSize);\r\n\r\n        if(from == address(0)){\r\n            \r\n            _addToeknToAllTokensEnum(tokenId);\r\n        }\r\n        else if(from!=to){\r\n            _removeTokenFromOwnerEnum(from, tokenId);\r\n        }\r\n\r\n        if(to == address(0)){\r\n            _removeTokenFromAllTokensEnum(tokenId);\r\n        }\r\n        else if(to!=from){\r\n            \r\n            _addTokenToOwnerEnum(to,tokenId);\r\n        }\r\n    }\r\n    //accord token to nft\r\n    function _addToeknToAllTokensEnum(uint tokenId)private{\r\n        _idToNftIndex[tokenId] = _allNfts.length;\r\n        _allNfts.push(tokenId);\r\n    }\r\n    //token that user prossess\r\n    function _addTokenToOwnerEnum(address to,uint tokenId)private{\r\n        uint tokenCount = ERC721.balanceOf(to);\r\n        _ownedTokens[to][tokenCount] = tokenId;\r\n        _idToOwnedIndex[tokenId] = tokenCount;\r\n    }\r\n\r\n\r\n\r\n    function getAllNFTOnSale() public view returns (Item[] memory){\r\n        uint allItemsCounts = getNFTCount();\r\n        uint CurrentIndex = 0;\r\n        \r\n        Item[] memory items = new Item[](_Items.current());\r\n\r\n        for (uint i = 0; i < allItemsCounts;i++){\r\n            uint tokenId = tokenByIndex(i);\r\n            Item storage item = _idToNftItem[tokenId];\r\n\r\n            if(item.isListed == true){\r\n                items[CurrentIndex] = item;\r\n                CurrentIndex++;\r\n            }\r\n        }\r\n        return items;\r\n    }\r\n\r\n    function _removeTokenFromOwnerEnum(address from,uint tokenId)private{\r\n        uint lastTokenIndex = ERC721.balanceOf(from)-1;\r\n        uint tokenIndex = _idToOwnedIndex[tokenId];\r\n\r\n        if(tokenIndex != lastTokenIndex){\r\n            uint lastTokenId = _ownedTokens[from][lastTokenIndex];\r\n\r\n            _ownedTokens[from][tokenIndex] = lastTokenId;\r\n            _idToOwnedIndex[lastTokenId] = tokenIndex;\r\n        }\r\n\r\n        delete _idToOwnedIndex[tokenId];\r\n        delete _ownedTokens[from][lastTokenIndex];\r\n    }\r\n\r\n\r\n\r\n    //put the last element of the array to the position whose element should be delete,\r\n    //then delete the last element\r\n    function _removeTokenFromAllTokensEnum(uint tokenId)private{\r\n        uint lastTokenIndex = _allNfts.length-1;\r\n        uint tokenIndex = _idToNftIndex[tokenId];\r\n        uint lastTokenId = _allNfts[lastTokenIndex];\r\n\r\n\r\n        _allNfts[tokenIndex] = lastTokenId;\r\n        _idToNftIndex[lastTokenId] = tokenIndex; \r\n\r\n        delete _idToNftIndex[tokenId];\r\n        _allNfts.pop();\r\n    }\r\n\r\n    function burnToken(uint tokenId) public{\r\n        _burn(tokenId);\r\n    }\r\n\r\n    function setListedPrice(uint price)external onlyOwner{\r\n        require(price>0,\"Price must be > 0\");\r\n       // _ListedPrice = price;\r\n    }\r\n\r\n    function placeNftOnSale(uint tokenId,uint price) public payable{\r\n        require(ERC721.ownerOf(tokenId) == msg.sender,\"You are not the NFT owner!\");\r\n        require(_idToNftItem[tokenId].isListed == false,\"NFT is on sale!\");\r\n        //require(msg.value == _ListedPrice,\"price should be equal to listed price!\");\r\n\r\n        _idToNftItem[tokenId].isListed = true;\r\n        _idToNftItem[tokenId].price = price;\r\n        _Items.increment();\r\n    }\r\n}",
  "sourcePath": "C:\\Users\\ROG\\market\\nft-marketplace\\contracts\\NftMarket.sol",
  "compiler": {
    "name": "solc",
    "version": "0.8.19+commit.7dd6d404.Emscripten.clang"
  },
  "schemaVersion": "3.4.13",
  "updatedAt": "2023-04-08T21:39:50.243Z",
  "networkType": "ethereum",
  "devdoc": {
    "events": {
      "Approval(address,address,uint256)": {
        "details": "Emitted when `owner` enables `approved` to manage the `tokenId` token."
      },
      "ApprovalForAll(address,address,bool)": {
        "details": "Emitted when `owner` enables or disables (`approved`) `operator` to manage all of its assets."
      },
      "Transfer(address,address,uint256)": {
        "details": "Emitted when `tokenId` token is transferred from `from` to `to`."
      }
    },
    "kind": "dev",
    "methods": {
      "approve(address,uint256)": {
        "details": "See {IERC721-approve}."
      },
      "balanceOf(address)": {
        "details": "See {IERC721-balanceOf}."
      },
      "getApproved(uint256)": {
        "details": "See {IERC721-getApproved}."
      },
      "isApprovedForAll(address,address)": {
        "details": "See {IERC721-isApprovedForAll}."
      },
      "name()": {
        "details": "See {IERC721Metadata-name}."
      },
      "owner()": {
        "details": "Returns the address of the current owner."
      },
      "ownerOf(uint256)": {
        "details": "See {IERC721-ownerOf}."
      },
      "renounceOwnership()": {
        "details": "Leaves the contract without owner. It will not be possible to call `onlyOwner` functions anymore. Can only be called by the current owner. NOTE: Renouncing ownership will leave the contract without an owner, thereby removing any functionality that is only available to the owner."
      },
      "safeTransferFrom(address,address,uint256)": {
        "details": "See {IERC721-safeTransferFrom}."
      },
      "safeTransferFrom(address,address,uint256,bytes)": {
        "details": "See {IERC721-safeTransferFrom}."
      },
      "setApprovalForAll(address,bool)": {
        "details": "See {IERC721-setApprovalForAll}."
      },
      "supportsInterface(bytes4)": {
        "details": "See {IERC165-supportsInterface}."
      },
      "symbol()": {
        "details": "See {IERC721Metadata-symbol}."
      },
      "tokenURI(uint256)": {
        "details": "See {IERC721Metadata-tokenURI}."
      },
      "transferFrom(address,address,uint256)": {
        "details": "See {IERC721-transferFrom}."
      },
      "transferOwnership(address)": {
        "details": "Transfers ownership of the contract to a new account (`newOwner`). Can only be called by the current owner."
      }
    },
    "version": 1
  },
  "userdoc": {
    "kind": "user",
    "methods": {},
    "version": 1
  }
}