{
  "contractName": "NftMarket",
  "abi": [
    {
      "inputs": [],
      "stateMutability": "nonpayable",
      "type": "constructor"
    },
    {
      "anonymous": false,
      "inputs": [
        {
          "indexed": true,
          "internalType": "address",
          "name": "owner",
          "type": "address"
        },
        {
          "indexed": true,
          "internalType": "address",
          "name": "approved",
          "type": "address"
        },
        {
          "indexed": true,
          "internalType": "uint256",
          "name": "tokenId",
          "type": "uint256"
        }
      ],
      "name": "Approval",
      "type": "event"
    },
    {
      "anonymous": false,
      "inputs": [
        {
          "indexed": true,
          "internalType": "address",
          "name": "owner",
          "type": "address"
        },
        {
          "indexed": true,
          "internalType": "address",
          "name": "operator",
          "type": "address"
        },
        {
          "indexed": false,
          "internalType": "bool",
          "name": "approved",
          "type": "bool"
        }
      ],
      "name": "ApprovalForAll",
      "type": "event"
    },
    {
      "anonymous": false,
      "inputs": [
        {
          "indexed": false,
          "internalType": "uint256",
          "name": "tokenId",
          "type": "uint256"
        },
        {
          "indexed": false,
          "internalType": "uint256",
          "name": "price",
          "type": "uint256"
        },
        {
          "indexed": false,
          "internalType": "address",
          "name": "creator",
          "type": "address"
        },
        {
          "indexed": false,
          "internalType": "bool",
          "name": "isListed",
          "type": "bool"
        }
      ],
      "name": "NFTCreation",
      "type": "event"
    },
    {
      "anonymous": false,
      "inputs": [
        {
          "indexed": true,
          "internalType": "address",
          "name": "previousOwner",
          "type": "address"
        },
        {
          "indexed": true,
          "internalType": "address",
          "name": "newOwner",
          "type": "address"
        }
      ],
      "name": "OwnershipTransferred",
      "type": "event"
    },
    {
      "anonymous": false,
      "inputs": [
        {
          "indexed": true,
          "internalType": "address",
          "name": "from",
          "type": "address"
        },
        {
          "indexed": true,
          "internalType": "address",
          "name": "to",
          "type": "address"
        },
        {
          "indexed": true,
          "internalType": "uint256",
          "name": "tokenId",
          "type": "uint256"
        }
      ],
      "name": "Transfer",
      "type": "event"
    },
    {
      "inputs": [
        {
          "internalType": "address",
          "name": "to",
          "type": "address"
        },
        {
          "internalType": "uint256",
          "name": "tokenId",
          "type": "uint256"
        }
      ],
      "name": "approve",
      "outputs": [],
      "stateMutability": "nonpayable",
      "type": "function"
    },
    {
      "inputs": [
        {
          "internalType": "address",
          "name": "owner",
          "type": "address"
        }
      ],
      "name": "balanceOf",
      "outputs": [
        {
          "internalType": "uint256",
          "name": "",
          "type": "uint256"
        }
      ],
      "stateMutability": "view",
      "type": "function",
      "constant": true
    },
    {
      "inputs": [],
      "name": "getAllNFTOnSale",
      "outputs": [
        {
          "components": [
            {
              "internalType": "uint256",
              "name": "tokenId",
              "type": "uint256"
            },
            {
              "internalType": "uint256",
              "name": "price",
              "type": "uint256"
            },
            {
              "internalType": "address",
              "name": "creator",
              "type": "address"
            },
            {
              "internalType": "address",
              "name": "owner",
              "type": "address"
            },
            {
              "internalType": "bool",
              "name": "isListed",
              "type": "bool"
            }
          ],
          "internalType": "struct ItemManager.Item[]",
          "name": "",
          "type": "tuple[]"
        }
      ],
      "stateMutability": "view",
      "type": "function",
      "constant": true
    },
    {
      "inputs": [
        {
          "internalType": "uint256",
          "name": "tokenId",
          "type": "uint256"
        }
      ],
      "name": "getApproved",
      "outputs": [
        {
          "internalType": "address",
          "name": "",
          "type": "address"
        }
      ],
      "stateMutability": "view",
      "type": "function",
      "constant": true
    },
    {
      "inputs": [
        {
          "internalType": "uint256",
          "name": "tokenId",
          "type": "uint256"
        }
      ],
      "name": "getNftItem",
      "outputs": [
        {
          "components": [
            {
              "internalType": "uint256",
              "name": "tokenId",
              "type": "uint256"
            },
            {
              "internalType": "uint256",
              "name": "price",
              "type": "uint256"
            },
            {
              "internalType": "address",
              "name": "creator",
              "type": "address"
            },
            {
              "internalType": "address",
              "name": "owner",
              "type": "address"
            },
            {
              "internalType": "bool",
              "name": "isListed",
              "type": "bool"
            }
          ],
          "internalType": "struct ItemManager.Item",
          "name": "",
          "type": "tuple"
        }
      ],
      "stateMutability": "view",
      "type": "function",
      "constant": true
    },
    {
      "inputs": [],
      "name": "getOwnedNfts",
      "outputs": [
        {
          "components": [
            {
              "internalType": "uint256",
              "name": "tokenId",
              "type": "uint256"
            },
            {
              "internalType": "uint256",
              "name": "price",
              "type": "uint256"
            },
            {
              "internalType": "address",
              "name": "creator",
              "type": "address"
            },
            {
              "internalType": "address",
              "name": "owner",
              "type": "address"
            },
            {
              "internalType": "bool",
              "name": "isListed",
              "type": "bool"
            }
          ],
          "internalType": "struct ItemManager.Item[]",
          "name": "",
          "type": "tuple[]"
        }
      ],
      "stateMutability": "view",
      "type": "function",
      "constant": true
    },
    {
      "inputs": [
        {
          "internalType": "address",
          "name": "owner",
          "type": "address"
        },
        {
          "internalType": "address",
          "name": "operator",
          "type": "address"
        }
      ],
      "name": "isApprovedForAll",
      "outputs": [
        {
          "internalType": "bool",
          "name": "",
          "type": "bool"
        }
      ],
      "stateMutability": "view",
      "type": "function",
      "constant": true
    },
    {
      "inputs": [],
      "name": "name",
      "outputs": [
        {
          "internalType": "string",
          "name": "",
          "type": "string"
        }
      ],
      "stateMutability": "view",
      "type": "function",
      "constant": true
    },
    {
      "inputs": [],
      "name": "owner",
      "outputs": [
        {
          "internalType": "address",
          "name": "",
          "type": "address"
        }
      ],
      "stateMutability": "view",
      "type": "function",
      "constant": true
    },
    {
      "inputs": [
        {
          "internalType": "uint256",
          "name": "tokenId",
          "type": "uint256"
        }
      ],
      "name": "ownerOf",
      "outputs": [
        {
          "internalType": "address",
          "name": "",
          "type": "address"
        }
      ],
      "stateMutability": "view",
      "type": "function",
      "constant": true
    },
    {
      "inputs": [],
      "name": "renounceOwnership",
      "outputs": [],
      "stateMutability": "nonpayable",
      "type": "function"
    },
    {
      "inputs": [
        {
          "internalType": "address",
          "name": "from",
          "type": "address"
        },
        {
          "internalType": "address",
          "name": "to",
          "type": "address"
        },
        {
          "internalType": "uint256",
          "name": "tokenId",
          "type": "uint256"
        }
      ],
      "name": "safeTransferFrom",
      "outputs": [],
      "stateMutability": "nonpayable",
      "type": "function"
    },
    {
      "inputs": [
        {
          "internalType": "address",
          "name": "from",
          "type": "address"
        },
        {
          "internalType": "address",
          "name": "to",
          "type": "address"
        },
        {
          "internalType": "uint256",
          "name": "tokenId",
          "type": "uint256"
        },
        {
          "internalType": "bytes",
          "name": "data",
          "type": "bytes"
        }
      ],
      "name": "safeTransferFrom",
      "outputs": [],
      "stateMutability": "nonpayable",
      "type": "function"
    },
    {
      "inputs": [
        {
          "internalType": "address",
          "name": "operator",
          "type": "address"
        },
        {
          "internalType": "bool",
          "name": "approved",
          "type": "bool"
        }
      ],
      "name": "setApprovalForAll",
      "outputs": [],
      "stateMutability": "nonpayable",
      "type": "function"
    },
    {
      "inputs": [
        {
          "internalType": "bytes4",
          "name": "interfaceId",
          "type": "bytes4"
        }
      ],
      "name": "supportsInterface",
      "outputs": [
        {
          "internalType": "bool",
          "name": "",
          "type": "bool"
        }
      ],
      "stateMutability": "view",
      "type": "function",
      "constant": true
    },
    {
      "inputs": [],
      "name": "symbol",
      "outputs": [
        {
          "internalType": "string",
          "name": "",
          "type": "string"
        }
      ],
      "stateMutability": "view",
      "type": "function",
      "constant": true
    },
    {
      "inputs": [
        {
          "internalType": "uint256",
          "name": "index",
          "type": "uint256"
        }
      ],
      "name": "tokenByIndex",
      "outputs": [
        {
          "internalType": "uint256",
          "name": "",
          "type": "uint256"
        }
      ],
      "stateMutability": "view",
      "type": "function",
      "constant": true
    },
    {
      "inputs": [
        {
          "internalType": "address",
          "name": "owner",
          "type": "address"
        },
        {
          "internalType": "uint256",
          "name": "index",
          "type": "uint256"
        }
      ],
      "name": "tokenByOwnedIndex",
      "outputs": [
        {
          "internalType": "uint256",
          "name": "",
          "type": "uint256"
        }
      ],
      "stateMutability": "view",
      "type": "function",
      "constant": true
    },
    {
      "inputs": [
        {
          "internalType": "uint256",
          "name": "tokenId",
          "type": "uint256"
        }
      ],
      "name": "tokenURI",
      "outputs": [
        {
          "internalType": "string",
          "name": "",
          "type": "string"
        }
      ],
      "stateMutability": "view",
      "type": "function",
      "constant": true
    },
    {
      "inputs": [],
      "name": "totalSupply",
      "outputs": [
        {
          "internalType": "uint256",
          "name": "",
          "type": "uint256"
        }
      ],
      "stateMutability": "view",
      "type": "function",
      "constant": true
    },
    {
      "inputs": [
        {
          "internalType": "address",
          "name": "from",
          "type": "address"
        },
        {
          "internalType": "address",
          "name": "to",
          "type": "address"
        },
        {
          "internalType": "uint256",
          "name": "tokenId",
          "type": "uint256"
        }
      ],
      "name": "transferFrom",
      "outputs": [],
      "stateMutability": "nonpayable",
      "type": "function"
    },
    {
      "inputs": [
        {
          "internalType": "address",
          "name": "newOwner",
          "type": "address"
        }
      ],
      "name": "transferOwnership",
      "outputs": [],
      "stateMutability": "nonpayable",
      "type": "function"
    },
    {
      "inputs": [
        {
          "internalType": "string",
          "name": "tokenURI",
          "type": "string"
        },
        {
          "internalType": "uint256",
          "name": "price",
          "type": "uint256"
        }
      ],
      "name": "mintToken",
      "outputs": [
        {
          "internalType": "uint256",
          "name": "",
          "type": "uint256"
        }
      ],
      "stateMutability": "payable",
      "type": "function",
      "payable": true
    },
    {
      "inputs": [
        {
          "internalType": "uint256",
          "name": "tokenId",
          "type": "uint256"
        }
      ],
      "name": "BuyNFT",
      "outputs": [],
      "stateMutability": "payable",
      "type": "function",
      "payable": true
    },
    {
      "inputs": [
        {
          "internalType": "uint256",
          "name": "tokenId",
          "type": "uint256"
        }
      ],
      "name": "burnToken",
      "outputs": [],
      "stateMutability": "nonpayable",
      "type": "function"
    },
    {
      "inputs": [
        {
          "internalType": "uint256",
          "name": "tokenId",
          "type": "uint256"
        },
        {
          "internalType": "uint256",
          "name": "price",
          "type": "uint256"
        }
      ],
      "name": "placeNftOnSale",
      "outputs": [],
      "stateMutability": "payable",
      "type": "function",
      "payable": true
    },
    {
      "inputs": [
        {
          "internalType": "uint256",
          "name": "tokenId",
          "type": "uint256"
        }
      ],
      "name": "placeNftOffSale",
      "outputs": [],
      "stateMutability": "payable",
      "type": "function",
      "payable": true
    }
  ],
  "bytecode": "0x60806040523480156200001157600080fd5b506040518060400160405280600781526020017f506572736f6e61000000000000000000000000000000000000000000000000008152506040518060400160405280600381526020017f4e465400000000000000000000000000000000000000000000000000000000008152508181816000908162000091919062000416565b508060019081620000a3919062000416565b5050505050620000c8620000bc620000ce60201b60201c565b620000d660201b60201c565b620004fd565b600033905090565b6000600f60009054906101000a900473ffffffffffffffffffffffffffffffffffffffff16905081600f60006101000a81548173ffffffffffffffffffffffffffffffffffffffff021916908373ffffffffffffffffffffffffffffffffffffffff1602179055508173ffffffffffffffffffffffffffffffffffffffff168173ffffffffffffffffffffffffffffffffffffffff167f8be0079c531659141344cd1fd0a4f28419497f9722a3daafe3b4186f6b6457e060405160405180910390a35050565b600081519050919050565b7f4e487b7100000000000000000000000000000000000000000000000000000000600052604160045260246000fd5b7f4e487b7100000000000000000000000000000000000000000000000000000000600052602260045260246000fd5b600060028204905060018216806200021e57607f821691505b602082108103620002345762000233620001d6565b5b50919050565b60008190508160005260206000209050919050565b60006020601f8301049050919050565b600082821b905092915050565b6000600883026200029e7fffffffffffffffffffffffffffffffffffffffffffffffffffffffffffffffff826200025f565b620002aa86836200025f565b95508019841693508086168417925050509392505050565b6000819050919050565b6000819050919050565b6000620002f7620002f1620002eb84620002c2565b620002cc565b620002c2565b9050919050565b6000819050919050565b6200031383620002d6565b6200032b6200032282620002fe565b8484546200026c565b825550505050565b600090565b6200034262000333565b6200034f81848462000308565b505050565b5b8181101562000377576200036b60008262000338565b60018101905062000355565b5050565b601f821115620003c65762000390816200023a565b6200039b846200024f565b81016020851015620003ab578190505b620003c3620003ba856200024f565b83018262000354565b50505b505050565b600082821c905092915050565b6000620003eb60001984600802620003cb565b1980831691505092915050565b6000620004068383620003d8565b9150826002028217905092915050565b62000421826200019c565b67ffffffffffffffff8111156200043d576200043c620001a7565b5b62000449825462000205565b620004568282856200037b565b600060209050601f8311600181146200048e576000841562000479578287015190505b620004858582620003f8565b865550620004f5565b601f1984166200049e866200023a565b60005b82811015620004c857848901518255600182019150602085019450602081019050620004a1565b86831015620004e85784890151620004e4601f891682620003d8565b8355505b6001600288020188555050505b505050505050565b614c0e806200050d6000396000f3fe60806040526004361061019c5760003560e01c806370cbcb43116100ec578063b88d4fde1161008a578063c87b56dd11610064578063c87b56dd146105b4578063d4e0968d146105f1578063e985e9c51461061c578063f2fde38b146106595761019c565b8063b88d4fde1461053f578063c046372c14610568578063c195690c146105985761019c565b80638da5cb5b116100c65780638da5cb5b146104a457806395d89b41146104cf578063a22cb465146104fa578063a37365e0146105235761019c565b806370cbcb4314610439578063715018a6146104645780637b47ec1a1461047b5761019c565b806323b872dd1161015957806358692bea1161013357806358692bea146103455780636352211e146103825780636f1a0af5146103bf57806370a08231146103fc5761019c565b806323b872dd146102b657806342842e0e146102df5780634f6ccce7146103085761019c565b806301ffc9a7146101a157806306fdde03146101de578063081812fc14610209578063095ea7b31461024657806318160ddd1461026f57806321f422e51461029a575b600080fd5b3480156101ad57600080fd5b506101c860048036038101906101c391906132a5565b610682565b6040516101d591906132ed565b60405180910390f35b3480156101ea57600080fd5b506101f3610764565b6040516102009190613398565b60405180910390f35b34801561021557600080fd5b50610230600480360381019061022b91906133f0565b6107f6565b60405161023d919061345e565b60405180910390f35b34801561025257600080fd5b5061026d600480360381019061026891906134a5565b61083c565b005b34801561027b57600080fd5b50610284610953565b60405161029191906134f4565b60405180910390f35b6102b460048036038101906102af919061350f565b610960565b005b3480156102c257600080fd5b506102dd60048036038101906102d8919061354f565b61096f565b005b3480156102eb57600080fd5b506103066004803603810190610301919061354f565b6109cf565b005b34801561031457600080fd5b5061032f600480360381019061032a91906133f0565b6109ef565b60405161033c91906134f4565b60405180910390f35b34801561035157600080fd5b5061036c600480360381019061036791906134a5565b610a60565b60405161037991906134f4565b60405180910390f35b34801561038e57600080fd5b506103a960048036038101906103a491906133f0565b610b05565b6040516103b6919061345e565b60405180910390f35b3480156103cb57600080fd5b506103e660048036038101906103e191906133f0565b610b8b565b6040516103f39190613637565b60405180910390f35b34801561040857600080fd5b50610423600480360381019061041e9190613652565b610c93565b60405161043091906134f4565b60405180910390f35b34801561044557600080fd5b5061044e610d4a565b60405161045b9190613796565b60405180910390f35b34801561047057600080fd5b50610479610f04565b005b34801561048757600080fd5b506104a2600480360381019061049d91906133f0565b610f18565b005b3480156104b057600080fd5b506104b9610f24565b6040516104c6919061345e565b60405180910390f35b3480156104db57600080fd5b506104e4610f4e565b6040516104f19190613398565b60405180910390f35b34801561050657600080fd5b50610521600480360381019061051c91906137e4565b610fe0565b005b61053d600480360381019061053891906133f0565b610ff6565b005b34801561054b57600080fd5b5061056660048036038101906105619190613959565b611004565b005b610582600480360381019061057d9190613a7d565b611066565b60405161058f91906134f4565b60405180910390f35b6105b260048036038101906105ad91906133f0565b61108a565b005b3480156105c057600080fd5b506105db60048036038101906105d691906133f0565b611097565b6040516105e89190613398565b60405180910390f35b3480156105fd57600080fd5b506106066111a9565b6040516106139190613796565b60405180910390f35b34801561062857600080fd5b50610643600480360381019061063e9190613ad9565b611398565b60405161065091906132ed565b60405180910390f35b34801561066557600080fd5b50610680600480360381019061067b9190613652565b61142c565b005b60007f80ac58cd000000000000000000000000000000000000000000000000000000007bffffffffffffffffffffffffffffffffffffffffffffffffffffffff1916827bffffffffffffffffffffffffffffffffffffffffffffffffffffffff1916148061074d57507f5b5e139f000000000000000000000000000000000000000000000000000000007bffffffffffffffffffffffffffffffffffffffffffffffffffffffff1916827bffffffffffffffffffffffffffffffffffffffffffffffffffffffff1916145b8061075d575061075c826114af565b5b9050919050565b60606000805461077390613b48565b80601f016020809104026020016040519081016040528092919081815260200182805461079f90613b48565b80156107ec5780601f106107c1576101008083540402835291602001916107ec565b820191906000526020600020905b8154815290600101906020018083116107cf57829003601f168201915b5050505050905090565b600061080182611519565b6004600083815260200190815260200160002060009054906101000a900473ffffffffffffffffffffffffffffffffffffffff169050919050565b600061084782610b05565b90508073ffffffffffffffffffffffffffffffffffffffff168373ffffffffffffffffffffffffffffffffffffffff16036108b7576040517f08c379a00000000000000000000000000000000000000000000000000000000081526004016108ae90613beb565b60405180910390fd5b8073ffffffffffffffffffffffffffffffffffffffff166108d6611564565b73ffffffffffffffffffffffffffffffffffffffff1614806109055750610904816108ff611564565b611398565b5b610944576040517f08c379a000000000000000000000000000000000000000000000000000000000815260040161093b90613c7d565b60405180910390fd5b61094e838361156c565b505050565b6000600780549050905090565b61096b823383611625565b5050565b61098061097a611564565b8261175e565b6109bf576040517f08c379a00000000000000000000000000000000000000000000000000000000081526004016109b690613d0f565b60405180910390fd5b6109ca8383836117f3565b505050565b6109ea83838360405180602001604052806000815250611004565b505050565b60006109f9610953565b8210610a3a576040517f08c379a0000000000000000000000000000000000000000000000000000000008152600401610a3190613d7b565b60405180910390fd5b60078281548110610a4e57610a4d613d9b565b5b90600052602060002001549050919050565b6000610a6b83610c93565b8210610aac576040517f08c379a0000000000000000000000000000000000000000000000000000000008152600401610aa390613d7b565b60405180910390fd5b600960008473ffffffffffffffffffffffffffffffffffffffff1673ffffffffffffffffffffffffffffffffffffffff168152602001908152602001600020600083815260200190815260200160002054905092915050565b600080610b1183611aec565b9050600073ffffffffffffffffffffffffffffffffffffffff168173ffffffffffffffffffffffffffffffffffffffff1603610b82576040517f08c379a0000000000000000000000000000000000000000000000000000000008152600401610b7990613e16565b60405180910390fd5b80915050919050565b610b9361317f565b600d60008381526020019081526020016000206040518060a001604052908160008201548152602001600182015481526020016002820160009054906101000a900473ffffffffffffffffffffffffffffffffffffffff1673ffffffffffffffffffffffffffffffffffffffff1673ffffffffffffffffffffffffffffffffffffffff1681526020016003820160009054906101000a900473ffffffffffffffffffffffffffffffffffffffff1673ffffffffffffffffffffffffffffffffffffffff1673ffffffffffffffffffffffffffffffffffffffff1681526020016003820160149054906101000a900460ff1615151515815250509050919050565b60008073ffffffffffffffffffffffffffffffffffffffff168273ffffffffffffffffffffffffffffffffffffffff1603610d03576040517f08c379a0000000000000000000000000000000000000000000000000000000008152600401610cfa90613ea8565b60405180910390fd5b600360008373ffffffffffffffffffffffffffffffffffffffff1673ffffffffffffffffffffffffffffffffffffffff168152602001908152602001600020549050919050565b60606000610d5733610c93565b905060008167ffffffffffffffff811115610d7557610d7461382e565b5b604051908082528060200260200182016040528015610dae57816020015b610d9b61317f565b815260200190600190039081610d935790505b50905060005b82811015610efb576000610dc83383610a60565b90506000600d60008381526020019081526020016000209050806040518060a001604052908160008201548152602001600182015481526020016002820160009054906101000a900473ffffffffffffffffffffffffffffffffffffffff1673ffffffffffffffffffffffffffffffffffffffff1673ffffffffffffffffffffffffffffffffffffffff1681526020016003820160009054906101000a900473ffffffffffffffffffffffffffffffffffffffff1673ffffffffffffffffffffffffffffffffffffffff1673ffffffffffffffffffffffffffffffffffffffff1681526020016003820160149054906101000a900460ff161515151581525050848481518110610edb57610eda613d9b565b5b602002602001018190525050508080610ef390613ef7565b915050610db4565b50809250505090565b610f0c611b29565b610f166000611ba7565b565b610f2181611c6d565b50565b6000600f60009054906101000a900473ffffffffffffffffffffffffffffffffffffffff16905090565b606060018054610f5d90613b48565b80601f0160208091040260200160405190810160405280929190818152602001828054610f8990613b48565b8015610fd65780601f10610fab57610100808354040283529160200191610fd6565b820191906000526020600020905b815481529060010190602001808311610fb957829003601f168201915b5050505050905090565b610ff2610feb611564565b8383611cc0565b5050565b611001813334611e2c565b50565b61101561100f611564565b8361175e565b611054576040517f08c379a000000000000000000000000000000000000000000000000000000000815260040161104b90613d0f565b60405180910390fd5b61106084848484611feb565b50505050565b6000806110733385612047565b9050611080818486612089565b8091505092915050565b61109481336122e0565b50565b60606110a282611519565b60006006600084815260200190815260200160002080546110c290613b48565b80601f01602080910402602001604051908101604052809291908181526020018280546110ee90613b48565b801561113b5780601f106111105761010080835404028352916020019161113b565b820191906000526020600020905b81548152906001019060200180831161111e57829003601f168201915b50505050509050600061114c6123fd565b905060008151036111615781925050506111a4565b60008251111561119657808260405160200161117e929190613f7b565b604051602081830303815290604052925050506111a4565b61119f84612414565b925050505b919050565b606060006111b5610953565b90506000806111c4600b61247c565b67ffffffffffffffff8111156111dd576111dc61382e565b5b60405190808252806020026020018201604052801561121657816020015b61120361317f565b8152602001906001900390816111fb5790505b50905060005b8381101561138e57600061122f826109ef565b90506000600d60008381526020019081526020016000209050600115158160030160149054906101000a900460ff1615150361137957806040518060a001604052908160008201548152602001600182015481526020016002820160009054906101000a900473ffffffffffffffffffffffffffffffffffffffff1673ffffffffffffffffffffffffffffffffffffffff1673ffffffffffffffffffffffffffffffffffffffff1681526020016003820160009054906101000a900473ffffffffffffffffffffffffffffffffffffffff1673ffffffffffffffffffffffffffffffffffffffff1673ffffffffffffffffffffffffffffffffffffffff1681526020016003820160149054906101000a900460ff16151515158152505084868151811061135f5761135e613d9b565b5b6020026020010181905250848061137590613ef7565b9550505b5050808061138690613ef7565b91505061121c565b5080935050505090565b6000600560008473ffffffffffffffffffffffffffffffffffffffff1673ffffffffffffffffffffffffffffffffffffffff16815260200190815260200160002060008373ffffffffffffffffffffffffffffffffffffffff1673ffffffffffffffffffffffffffffffffffffffff16815260200190815260200160002060009054906101000a900460ff16905092915050565b611434611b29565b600073ffffffffffffffffffffffffffffffffffffffff168173ffffffffffffffffffffffffffffffffffffffff16036114a3576040517f08c379a000000000000000000000000000000000000000000000000000000000815260040161149a90614011565b60405180910390fd5b6114ac81611ba7565b50565b60007f01ffc9a7000000000000000000000000000000000000000000000000000000007bffffffffffffffffffffffffffffffffffffffffffffffffffffffff1916827bffffffffffffffffffffffffffffffffffffffffffffffffffffffff1916149050919050565b6115228161248a565b611561576040517f08c379a000000000000000000000000000000000000000000000000000000000815260040161155890613e16565b60405180910390fd5b50565b600033905090565b816004600083815260200190815260200160002060006101000a81548173ffffffffffffffffffffffffffffffffffffffff021916908373ffffffffffffffffffffffffffffffffffffffff160217905550808273ffffffffffffffffffffffffffffffffffffffff166115df83610b05565b73ffffffffffffffffffffffffffffffffffffffff167f8c5be1e5ebec7d5bd14f71427d1e84f3dd0314c0f7b2291e5b200ac8c7c3b92560405160405180910390a45050565b8173ffffffffffffffffffffffffffffffffffffffff1661164584610b05565b73ffffffffffffffffffffffffffffffffffffffff161461169b576040517f08c379a00000000000000000000000000000000000000000000000000000000081526004016116929061407d565b60405180910390fd5b60001515600d600085815260200190815260200160002060030160149054906101000a900460ff16151514611705576040517f08c379a00000000000000000000000000000000000000000000000000000000081526004016116fc906140e9565b60405180910390fd5b6001600d600085815260200190815260200160002060030160146101000a81548160ff02191690831515021790555080600d600085815260200190815260200160002060010181905550611759600b6124cb565b505050565b60008061176a83610b05565b90508073ffffffffffffffffffffffffffffffffffffffff168473ffffffffffffffffffffffffffffffffffffffff1614806117ac57506117ab8185611398565b5b806117ea57508373ffffffffffffffffffffffffffffffffffffffff166117d2846107f6565b73ffffffffffffffffffffffffffffffffffffffff16145b91505092915050565b8273ffffffffffffffffffffffffffffffffffffffff1661181382610b05565b73ffffffffffffffffffffffffffffffffffffffff1614611869576040517f08c379a00000000000000000000000000000000000000000000000000000000081526004016118609061417b565b60405180910390fd5b600073ffffffffffffffffffffffffffffffffffffffff168273ffffffffffffffffffffffffffffffffffffffff16036118d8576040517f08c379a00000000000000000000000000000000000000000000000000000000081526004016118cf9061420d565b60405180910390fd5b6118e583838360016124e1565b8273ffffffffffffffffffffffffffffffffffffffff1661190582610b05565b73ffffffffffffffffffffffffffffffffffffffff161461195b576040517f08c379a00000000000000000000000000000000000000000000000000000000081526004016119529061417b565b60405180910390fd5b6004600082815260200190815260200160002060006101000a81549073ffffffffffffffffffffffffffffffffffffffff02191690556001600360008573ffffffffffffffffffffffffffffffffffffffff1673ffffffffffffffffffffffffffffffffffffffff168152602001908152602001600020600082825403925050819055506001600360008473ffffffffffffffffffffffffffffffffffffffff1673ffffffffffffffffffffffffffffffffffffffff16815260200190815260200160002060008282540192505081905550816002600083815260200190815260200160002060006101000a81548173ffffffffffffffffffffffffffffffffffffffff021916908373ffffffffffffffffffffffffffffffffffffffff160217905550808273ffffffffffffffffffffffffffffffffffffffff168473ffffffffffffffffffffffffffffffffffffffff167fddf252ad1be2c89b69c2b068fc378daa952ba7f163c4a11628f55a4df523b3ef60405160405180910390a4611ae783838360016125f5565b505050565b60006002600083815260200190815260200160002060009054906101000a900473ffffffffffffffffffffffffffffffffffffffff169050919050565b611b31611564565b73ffffffffffffffffffffffffffffffffffffffff16611b4f610f24565b73ffffffffffffffffffffffffffffffffffffffff1614611ba5576040517f08c379a0000000000000000000000000000000000000000000000000000000008152600401611b9c90614279565b60405180910390fd5b565b6000600f60009054906101000a900473ffffffffffffffffffffffffffffffffffffffff16905081600f60006101000a81548173ffffffffffffffffffffffffffffffffffffffff021916908373ffffffffffffffffffffffffffffffffffffffff1602179055508173ffffffffffffffffffffffffffffffffffffffff168173ffffffffffffffffffffffffffffffffffffffff167f8be0079c531659141344cd1fd0a4f28419497f9722a3daafe3b4186f6b6457e060405160405180910390a35050565b611c76816125fb565b6000600660008381526020019081526020016000208054611c9690613b48565b905014611cbd57600660008281526020019081526020016000206000611cbc91906131dc565b5b50565b8173ffffffffffffffffffffffffffffffffffffffff168373ffffffffffffffffffffffffffffffffffffffff1603611d2e576040517f08c379a0000000000000000000000000000000000000000000000000000000008152600401611d25906142e5565b60405180910390fd5b80600560008573ffffffffffffffffffffffffffffffffffffffff1673ffffffffffffffffffffffffffffffffffffffff16815260200190815260200160002060008473ffffffffffffffffffffffffffffffffffffffff1673ffffffffffffffffffffffffffffffffffffffff16815260200190815260200160002060006101000a81548160ff0219169083151502179055508173ffffffffffffffffffffffffffffffffffffffff168373ffffffffffffffffffffffffffffffffffffffff167f17307eab39ab6107e8899845ad3d59bd9653f200f220920489ca2b5937696c3183604051611e1f91906132ed565b60405180910390a3505050565b6000600d60008581526020019081526020016000206001015490506000611e5285610b05565b9050818314611e96576040517f08c379a0000000000000000000000000000000000000000000000000000000008152600401611e8d90614351565b60405180910390fd5b8073ffffffffffffffffffffffffffffffffffffffff168473ffffffffffffffffffffffffffffffffffffffff1603611f04576040517f08c379a0000000000000000000000000000000000000000000000000000000008152600401611efb906143bd565b60405180910390fd5b6000600d600087815260200190815260200160002060030160146101000a81548160ff021916908315150217905550611f3d600b612749565b611f488185876117f3565b8073ffffffffffffffffffffffffffffffffffffffff166108fc849081150290604051600060405180830381858888f19350505050158015611f8e573d6000803e3d6000fd5b5083600d600087815260200190815260200160002060030160006101000a81548173ffffffffffffffffffffffffffffffffffffffff021916908373ffffffffffffffffffffffffffffffffffffffff1602179055505050505050565b611ff68484846117f3565b612002848484846127a5565b612041576040517f08c379a00000000000000000000000000000000000000000000000000000000081526004016120389061444f565b60405180910390fd5b50505050565b6000612053600c6124cb565b61205d600b6124cb565b6000612069600c61247c565b9050612075848261292c565b61207f818461294a565b8091505092915050565b600082116120cc576040517f08c379a00000000000000000000000000000000000000000000000000000000081526004016120c3906144bb565b60405180910390fd5b600e816040516120dc91906144db565b908152602001604051809103902060009054906101000a900460ff1615612138576040517f08c379a000000000000000000000000000000000000000000000000000000000815260040161212f9061453e565b60405180910390fd5b6040518060a001604052808481526020018381526020013373ffffffffffffffffffffffffffffffffffffffff1681526020013373ffffffffffffffffffffffffffffffffffffffff16815260200160011515815250600d6000858152602001908152602001600020600082015181600001556020820151816001015560408201518160020160006101000a81548173ffffffffffffffffffffffffffffffffffffffff021916908373ffffffffffffffffffffffffffffffffffffffff16021790555060608201518160030160006101000a81548173ffffffffffffffffffffffffffffffffffffffff021916908373ffffffffffffffffffffffffffffffffffffffff16021790555060808201518160030160146101000a81548160ff0219169083151502179055509050506001600e8260405161227891906144db565b908152602001604051809103902060006101000a81548160ff0219169083151502179055507ffff7c517dc4ea22cc15bd2e56257953140b12fbb106448328f6cdaa5905e74c983833360016040516122d3949392919061455e565b60405180910390a1505050565b8073ffffffffffffffffffffffffffffffffffffffff1661230083610b05565b73ffffffffffffffffffffffffffffffffffffffff1614612356576040517f08c379a000000000000000000000000000000000000000000000000000000000815260040161234d9061407d565b60405180910390fd5b60011515600d600084815260200190815260200160002060030160149054906101000a900460ff161515146123c0576040517f08c379a00000000000000000000000000000000000000000000000000000000081526004016123b7906145ef565b60405180910390fd5b6000600d600084815260200190815260200160002060030160146101000a81548160ff0219169083151502179055506123f9600b612749565b5050565b606060405180602001604052806000815250905090565b606061241f82611519565b60006124296123fd565b905060008151116124495760405180602001604052806000815250612474565b80612453846129b7565b604051602001612464929190613f7b565b6040516020818303038152906040525b915050919050565b600081600001549050919050565b60008073ffffffffffffffffffffffffffffffffffffffff166124ac83611aec565b73ffffffffffffffffffffffffffffffffffffffff1614159050919050565b6001816000016000828254019250508190555050565b6124ed84848484612a85565b600073ffffffffffffffffffffffffffffffffffffffff168473ffffffffffffffffffffffffffffffffffffffff160361252f5761252a82612a8b565b61256e565b8273ffffffffffffffffffffffffffffffffffffffff168473ffffffffffffffffffffffffffffffffffffffff161461256d5761256c8483612ad4565b5b5b600073ffffffffffffffffffffffffffffffffffffffff168373ffffffffffffffffffffffffffffffffffffffff16036125b0576125ab82612c41565b6125ef565b8373ffffffffffffffffffffffffffffffffffffffff168373ffffffffffffffffffffffffffffffffffffffff16146125ee576125ed8383612d12565b5b5b50505050565b50505050565b600061260682610b05565b90506126168160008460016124e1565b61261f82610b05565b90506004600083815260200190815260200160002060006101000a81549073ffffffffffffffffffffffffffffffffffffffff02191690556001600360008373ffffffffffffffffffffffffffffffffffffffff1673ffffffffffffffffffffffffffffffffffffffff168152602001908152602001600020600082825403925050819055506002600083815260200190815260200160002060006101000a81549073ffffffffffffffffffffffffffffffffffffffff021916905581600073ffffffffffffffffffffffffffffffffffffffff168273ffffffffffffffffffffffffffffffffffffffff167fddf252ad1be2c89b69c2b068fc378daa952ba7f163c4a11628f55a4df523b3ef60405160405180910390a46127458160008460016125f5565b5050565b60008160000154905060008111612795576040517f08c379a000000000000000000000000000000000000000000000000000000000815260040161278c9061465b565b60405180910390fd5b6001810382600001819055505050565b60006127c68473ffffffffffffffffffffffffffffffffffffffff16612d91565b1561291f578373ffffffffffffffffffffffffffffffffffffffff1663150b7a026127ef611564565b8786866040518563ffffffff1660e01b815260040161281194939291906146d0565b6020604051808303816000875af192505050801561284d57506040513d601f19601f8201168201806040525081019061284a9190614731565b60015b6128cf573d806000811461287d576040519150601f19603f3d011682016040523d82523d6000602084013e612882565b606091505b5060008151036128c7576040517f08c379a00000000000000000000000000000000000000000000000000000000081526004016128be9061444f565b60405180910390fd5b805181602001fd5b63150b7a0260e01b7bffffffffffffffffffffffffffffffffffffffffffffffffffffffff1916817bffffffffffffffffffffffffffffffffffffffffffffffffffffffff191614915050612924565b600190505b949350505050565b612946828260405180602001604052806000815250612db4565b5050565b6129538261248a565b612992576040517f08c379a0000000000000000000000000000000000000000000000000000000008152600401612989906147d0565b60405180910390fd5b806006600084815260200190815260200160002090816129b2919061499c565b505050565b6060600060016129c684612e0f565b01905060008167ffffffffffffffff8111156129e5576129e461382e565b5b6040519080825280601f01601f191660200182016040528015612a175781602001600182028036833780820191505090505b509050600082602001820190505b600115612a7a578080600190039150507f3031323334353637383961626364656600000000000000000000000000000000600a86061a8153600a8581612a6e57612a6d614a6e565b5b04945060008503612a25575b819350505050919050565b50505050565b6007805490506008600083815260200190815260200160002081905550600781908060018154018082558091505060019003906000526020600020016000909190919091505550565b60006001612ae184610c93565b612aeb9190614a9d565b90506000600a6000848152602001908152602001600020549050818114612bd0576000600960008673ffffffffffffffffffffffffffffffffffffffff1673ffffffffffffffffffffffffffffffffffffffff168152602001908152602001600020600084815260200190815260200160002054905080600960008773ffffffffffffffffffffffffffffffffffffffff1673ffffffffffffffffffffffffffffffffffffffff16815260200190815260200160002060008481526020019081526020016000208190555081600a600083815260200190815260200160002081905550505b600a600084815260200190815260200160002060009055600960008573ffffffffffffffffffffffffffffffffffffffff1673ffffffffffffffffffffffffffffffffffffffff16815260200190815260200160002060008381526020019081526020016000206000905550505050565b60006001600780549050612c559190614a9d565b9050600060086000848152602001908152602001600020549050600060078381548110612c8557612c84613d9b565b5b906000526020600020015490508060078381548110612ca757612ca6613d9b565b5b906000526020600020018190555081600860008381526020019081526020016000208190555060086000858152602001908152602001600020600090556007805480612cf657612cf5614ad1565b5b6001900381819060005260206000200160009055905550505050565b6000612d1d83610c93565b905081600960008573ffffffffffffffffffffffffffffffffffffffff1673ffffffffffffffffffffffffffffffffffffffff16815260200190815260200160002060008381526020019081526020016000208190555080600a600084815260200190815260200160002081905550505050565b6000808273ffffffffffffffffffffffffffffffffffffffff163b119050919050565b612dbe8383612f62565b612dcb60008484846127a5565b612e0a576040517f08c379a0000000000000000000000000000000000000000000000000000000008152600401612e019061444f565b60405180910390fd5b505050565b600080600090507a184f03e93ff9f4daa797ed6e38ed64bf6a1f0100000000000000008310612e6d577a184f03e93ff9f4daa797ed6e38ed64bf6a1f0100000000000000008381612e6357612e62614a6e565b5b0492506040810190505b6d04ee2d6d415b85acef81000000008310612eaa576d04ee2d6d415b85acef81000000008381612ea057612e9f614a6e565b5b0492506020810190505b662386f26fc100008310612ed957662386f26fc100008381612ecf57612ece614a6e565b5b0492506010810190505b6305f5e1008310612f02576305f5e1008381612ef857612ef7614a6e565b5b0492506008810190505b6127108310612f27576127108381612f1d57612f1c614a6e565b5b0492506004810190505b60648310612f4a5760648381612f4057612f3f614a6e565b5b0492506002810190505b600a8310612f59576001810190505b80915050919050565b600073ffffffffffffffffffffffffffffffffffffffff168273ffffffffffffffffffffffffffffffffffffffff1603612fd1576040517f08c379a0000000000000000000000000000000000000000000000000000000008152600401612fc890614b4c565b60405180910390fd5b612fda8161248a565b1561301a576040517f08c379a000000000000000000000000000000000000000000000000000000000815260040161301190614bb8565b60405180910390fd5b6130286000838360016124e1565b6130318161248a565b15613071576040517f08c379a000000000000000000000000000000000000000000000000000000000815260040161306890614bb8565b60405180910390fd5b6001600360008473ffffffffffffffffffffffffffffffffffffffff1673ffffffffffffffffffffffffffffffffffffffff16815260200190815260200160002060008282540192505081905550816002600083815260200190815260200160002060006101000a81548173ffffffffffffffffffffffffffffffffffffffff021916908373ffffffffffffffffffffffffffffffffffffffff160217905550808273ffffffffffffffffffffffffffffffffffffffff16600073ffffffffffffffffffffffffffffffffffffffff167fddf252ad1be2c89b69c2b068fc378daa952ba7f163c4a11628f55a4df523b3ef60405160405180910390a461317b6000838360016125f5565b5050565b6040518060a001604052806000815260200160008152602001600073ffffffffffffffffffffffffffffffffffffffff168152602001600073ffffffffffffffffffffffffffffffffffffffff1681526020016000151581525090565b5080546131e890613b48565b6000825580601f106131fa5750613219565b601f016020900490600052602060002090810190613218919061321c565b5b50565b5b8082111561323557600081600090555060010161321d565b5090565b6000604051905090565b600080fd5b600080fd5b60007fffffffff0000000000000000000000000000000000000000000000000000000082169050919050565b6132828161324d565b811461328d57600080fd5b50565b60008135905061329f81613279565b92915050565b6000602082840312156132bb576132ba613243565b5b60006132c984828501613290565b91505092915050565b60008115159050919050565b6132e7816132d2565b82525050565b600060208201905061330260008301846132de565b92915050565b600081519050919050565b600082825260208201905092915050565b60005b83811015613342578082015181840152602081019050613327565b60008484015250505050565b6000601f19601f8301169050919050565b600061336a82613308565b6133748185613313565b9350613384818560208601613324565b61338d8161334e565b840191505092915050565b600060208201905081810360008301526133b2818461335f565b905092915050565b6000819050919050565b6133cd816133ba565b81146133d857600080fd5b50565b6000813590506133ea816133c4565b92915050565b60006020828403121561340657613405613243565b5b6000613414848285016133db565b91505092915050565b600073ffffffffffffffffffffffffffffffffffffffff82169050919050565b60006134488261341d565b9050919050565b6134588161343d565b82525050565b6000602082019050613473600083018461344f565b92915050565b6134828161343d565b811461348d57600080fd5b50565b60008135905061349f81613479565b92915050565b600080604083850312156134bc576134bb613243565b5b60006134ca85828601613490565b92505060206134db858286016133db565b9150509250929050565b6134ee816133ba565b82525050565b600060208201905061350960008301846134e5565b92915050565b6000806040838503121561352657613525613243565b5b6000613534858286016133db565b9250506020613545858286016133db565b9150509250929050565b60008060006060848603121561356857613567613243565b5b600061357686828701613490565b935050602061358786828701613490565b9250506040613598868287016133db565b9150509250925092565b6135ab816133ba565b82525050565b6135ba8161343d565b82525050565b6135c9816132d2565b82525050565b60a0820160008201516135e560008501826135a2565b5060208201516135f860208501826135a2565b50604082015161360b60408501826135b1565b50606082015161361e60608501826135b1565b50608082015161363160808501826135c0565b50505050565b600060a08201905061364c60008301846135cf565b92915050565b60006020828403121561366857613667613243565b5b600061367684828501613490565b91505092915050565b600081519050919050565b600082825260208201905092915050565b6000819050602082019050919050565b60a0820160008201516136c160008501826135a2565b5060208201516136d460208501826135a2565b5060408201516136e760408501826135b1565b5060608201516136fa60608501826135b1565b50608082015161370d60808501826135c0565b50505050565b600061371f83836136ab565b60a08301905092915050565b6000602082019050919050565b60006137438261367f565b61374d818561368a565b93506137588361369b565b8060005b838110156137895781516137708882613713565b975061377b8361372b565b92505060018101905061375c565b5085935050505092915050565b600060208201905081810360008301526137b08184613738565b905092915050565b6137c1816132d2565b81146137cc57600080fd5b50565b6000813590506137de816137b8565b92915050565b600080604083850312156137fb576137fa613243565b5b600061380985828601613490565b925050602061381a858286016137cf565b9150509250929050565b600080fd5b600080fd5b7f4e487b7100000000000000000000000000000000000000000000000000000000600052604160045260246000fd5b6138668261334e565b810181811067ffffffffffffffff821117156138855761388461382e565b5b80604052505050565b6000613898613239565b90506138a4828261385d565b919050565b600067ffffffffffffffff8211156138c4576138c361382e565b5b6138cd8261334e565b9050602081019050919050565b82818337600083830152505050565b60006138fc6138f7846138a9565b61388e565b90508281526020810184848401111561391857613917613829565b5b6139238482856138da565b509392505050565b600082601f8301126139405761393f613824565b5b81356139508482602086016138e9565b91505092915050565b6000806000806080858703121561397357613972613243565b5b600061398187828801613490565b945050602061399287828801613490565b93505060406139a3878288016133db565b925050606085013567ffffffffffffffff8111156139c4576139c3613248565b5b6139d08782880161392b565b91505092959194509250565b600067ffffffffffffffff8211156139f7576139f661382e565b5b613a008261334e565b9050602081019050919050565b6000613a20613a1b846139dc565b61388e565b905082815260208101848484011115613a3c57613a3b613829565b5b613a478482856138da565b509392505050565b600082601f830112613a6457613a63613824565b5b8135613a74848260208601613a0d565b91505092915050565b60008060408385031215613a9457613a93613243565b5b600083013567ffffffffffffffff811115613ab257613ab1613248565b5b613abe85828601613a4f565b9250506020613acf858286016133db565b9150509250929050565b60008060408385031215613af057613aef613243565b5b6000613afe85828601613490565b9250506020613b0f85828601613490565b9150509250929050565b7f4e487b7100000000000000000000000000000000000000000000000000000000600052602260045260246000fd5b60006002820490506001821680613b6057607f821691505b602082108103613b7357613b72613b19565b5b50919050565b7f4552433732313a20617070726f76616c20746f2063757272656e74206f776e6560008201527f7200000000000000000000000000000000000000000000000000000000000000602082015250565b6000613bd5602183613313565b9150613be082613b79565b604082019050919050565b60006020820190508181036000830152613c0481613bc8565b9050919050565b7f4552433732313a20617070726f76652063616c6c6572206973206e6f7420746f60008201527f6b656e206f776e6572206f7220617070726f76656420666f7220616c6c000000602082015250565b6000613c67603d83613313565b9150613c7282613c0b565b604082019050919050565b60006020820190508181036000830152613c9681613c5a565b9050919050565b7f4552433732313a2063616c6c6572206973206e6f7420746f6b656e206f776e6560008201527f72206f7220617070726f76656400000000000000000000000000000000000000602082015250565b6000613cf9602d83613313565b9150613d0482613c9d565b604082019050919050565b60006020820190508181036000830152613d2881613cec565b9050919050565b7f696e646578206973206f7574206f6620626f756e640000000000000000000000600082015250565b6000613d65601583613313565b9150613d7082613d2f565b602082019050919050565b60006020820190508181036000830152613d9481613d58565b9050919050565b7f4e487b7100000000000000000000000000000000000000000000000000000000600052603260045260246000fd5b7f4552433732313a20696e76616c696420746f6b656e2049440000000000000000600082015250565b6000613e00601883613313565b9150613e0b82613dca565b602082019050919050565b60006020820190508181036000830152613e2f81613df3565b9050919050565b7f4552433732313a2061646472657373207a65726f206973206e6f74206120766160008201527f6c6964206f776e65720000000000000000000000000000000000000000000000602082015250565b6000613e92602983613313565b9150613e9d82613e36565b604082019050919050565b60006020820190508181036000830152613ec181613e85565b9050919050565b7f4e487b7100000000000000000000000000000000000000000000000000000000600052601160045260246000fd5b6000613f02826133ba565b91507fffffffffffffffffffffffffffffffffffffffffffffffffffffffffffffffff8203613f3457613f33613ec8565b5b600182019050919050565b600081905092915050565b6000613f5582613308565b613f5f8185613f3f565b9350613f6f818560208601613324565b80840191505092915050565b6000613f878285613f4a565b9150613f938284613f4a565b91508190509392505050565b7f4f776e61626c653a206e6577206f776e657220697320746865207a65726f206160008201527f6464726573730000000000000000000000000000000000000000000000000000602082015250565b6000613ffb602683613313565b915061400682613f9f565b604082019050919050565b6000602082019050818103600083015261402a81613fee565b9050919050565b7f596f7520617265206e6f7420746865204e4654206f776e657221000000000000600082015250565b6000614067601a83613313565b915061407282614031565b602082019050919050565b600060208201905081810360008301526140968161405a565b9050919050565b7f4e4654206973206f6e2073616c65210000000000000000000000000000000000600082015250565b60006140d3600f83613313565b91506140de8261409d565b602082019050919050565b60006020820190508181036000830152614102816140c6565b9050919050565b7f4552433732313a207472616e736665722066726f6d20696e636f72726563742060008201527f6f776e6572000000000000000000000000000000000000000000000000000000602082015250565b6000614165602583613313565b915061417082614109565b604082019050919050565b6000602082019050818103600083015261419481614158565b9050919050565b7f4552433732313a207472616e7366657220746f20746865207a65726f2061646460008201527f7265737300000000000000000000000000000000000000000000000000000000602082015250565b60006141f7602483613313565b91506142028261419b565b604082019050919050565b60006020820190508181036000830152614226816141ea565b9050919050565b7f4f776e61626c653a2063616c6c6572206973206e6f7420746865206f776e6572600082015250565b6000614263602083613313565b915061426e8261422d565b602082019050919050565b6000602082019050818103600083015261429281614256565b9050919050565b7f4552433732313a20617070726f766520746f2063616c6c657200000000000000600082015250565b60006142cf601983613313565b91506142da82614299565b602082019050919050565b600060208201905081810360008301526142fe816142c2565b9050919050565b7f506c65617365207375626d697420746865207072696365000000000000000000600082015250565b600061433b601783613313565b915061434682614305565b602082019050919050565b6000602082019050818103600083015261436a8161432e565b9050919050565b7f596f7520616c7265616479206f776e2074686973204e46540000000000000000600082015250565b60006143a7601883613313565b91506143b282614371565b602082019050919050565b600060208201905081810360008301526143d68161439a565b9050919050565b7f4552433732313a207472616e7366657220746f206e6f6e20455243373231526560008201527f63656976657220696d706c656d656e7465720000000000000000000000000000602082015250565b6000614439603283613313565b9150614444826143dd565b604082019050919050565b600060208201905081810360008301526144688161442c565b9050919050565b7f5072696365206d757374206265206174206c6561737420312077656900000000600082015250565b60006144a5601c83613313565b91506144b08261446f565b602082019050919050565b600060208201905081810360008301526144d481614498565b9050919050565b60006144e78284613f4a565b915081905092915050565b7f746f6b656e205552492069732065786973746564000000000000000000000000600082015250565b6000614528601483613313565b9150614533826144f2565b602082019050919050565b600060208201905081810360008301526145578161451b565b9050919050565b600060808201905061457360008301876134e5565b61458060208301866134e5565b61458d604083018561344f565b61459a60608301846132de565b95945050505050565b7f4e4654206973206f66662073616c652100000000000000000000000000000000600082015250565b60006145d9601083613313565b91506145e4826145a3565b602082019050919050565b60006020820190508181036000830152614608816145cc565b9050919050565b7f436f756e7465723a2064656372656d656e74206f766572666c6f770000000000600082015250565b6000614645601b83613313565b91506146508261460f565b602082019050919050565b6000602082019050818103600083015261467481614638565b9050919050565b600081519050919050565b600082825260208201905092915050565b60006146a28261467b565b6146ac8185614686565b93506146bc818560208601613324565b6146c58161334e565b840191505092915050565b60006080820190506146e5600083018761344f565b6146f2602083018661344f565b6146ff60408301856134e5565b81810360608301526147118184614697565b905095945050505050565b60008151905061472b81613279565b92915050565b60006020828403121561474757614746613243565b5b60006147558482850161471c565b91505092915050565b7f45524337323155524953746f726167653a2055524920736574206f66206e6f6e60008201527f6578697374656e7420746f6b656e000000000000000000000000000000000000602082015250565b60006147ba602e83613313565b91506147c58261475e565b604082019050919050565b600060208201905081810360008301526147e9816147ad565b9050919050565b60008190508160005260206000209050919050565b60006020601f8301049050919050565b600082821b905092915050565b6000600883026148527fffffffffffffffffffffffffffffffffffffffffffffffffffffffffffffffff82614815565b61485c8683614815565b95508019841693508086168417925050509392505050565b6000819050919050565b600061489961489461488f846133ba565b614874565b6133ba565b9050919050565b6000819050919050565b6148b38361487e565b6148c76148bf826148a0565b848454614822565b825550505050565b600090565b6148dc6148cf565b6148e78184846148aa565b505050565b5b8181101561490b576149006000826148d4565b6001810190506148ed565b5050565b601f82111561495057614921816147f0565b61492a84614805565b81016020851015614939578190505b61494d61494585614805565b8301826148ec565b50505b505050565b600082821c905092915050565b600061497360001984600802614955565b1980831691505092915050565b600061498c8383614962565b9150826002028217905092915050565b6149a582613308565b67ffffffffffffffff8111156149be576149bd61382e565b5b6149c88254613b48565b6149d382828561490f565b600060209050601f831160018114614a0657600084156149f4578287015190505b6149fe8582614980565b865550614a66565b601f198416614a14866147f0565b60005b82811015614a3c57848901518255600182019150602085019450602081019050614a17565b86831015614a595784890151614a55601f891682614962565b8355505b6001600288020188555050505b505050505050565b7f4e487b7100000000000000000000000000000000000000000000000000000000600052601260045260246000fd5b6000614aa8826133ba565b9150614ab3836133ba565b9250828203905081811115614acb57614aca613ec8565b5b92915050565b7f4e487b7100000000000000000000000000000000000000000000000000000000600052603160045260246000fd5b7f4552433732313a206d696e7420746f20746865207a65726f2061646472657373600082015250565b6000614b36602083613313565b9150614b4182614b00565b602082019050919050565b60006020820190508181036000830152614b6581614b29565b9050919050565b7f4552433732313a20746f6b656e20616c7265616479206d696e74656400000000600082015250565b6000614ba2601c83613313565b9150614bad82614b6c565b602082019050919050565b60006020820190508181036000830152614bd181614b95565b905091905056fea2646970667358221220fbbf038288c7103d0555591e93d1ce10a26d4c4dd6e45e272217ef0e75df13d364736f6c63430008130033",
  "immutableReferences": {},
  "source": "// SPDX-License-Identifier: MIT\r\npragma solidity >=0.4.22 <0.9.0;\r\n\r\n\r\nimport \"./ItemManager.sol\";\r\nimport \"./Enumerable.sol\";\r\nimport \"@openzeppelin/contracts/access/Ownable.sol\";\r\n\r\ncontract NftMarket is ItemManager, Ownable {\r\n    constructor() ItemManager(\"Persona\", \"NFT\") {}\r\n\r\n    function mintToken(string memory tokenURI, uint price) public payable returns (uint) {\r\n        uint _tokenId = _mintToken(msg.sender, tokenURI);\r\n        _createItem(_tokenId, price,tokenURI);\r\n        return _tokenId;\r\n    }\r\n\r\n    function BuyNFT(uint tokenId) public payable  {\r\n        _buyNFT(tokenId, msg.sender, msg.value);\r\n    }\r\n\r\n    function burnToken(uint tokenId) public {\r\n        _burn(tokenId);\r\n    }\r\n\r\n    function placeNftOnSale(uint tokenId, uint price) public payable  {\r\n        _placeNftOnSale(tokenId, msg.sender, price);\r\n    }\r\n\r\n    function placeNftOffSale(uint tokenId) public payable  {\r\n        _placeNftOffSale(tokenId, msg.sender);\r\n    }\r\n}",
  "sourcePath": "C:\\Users\\ROG\\market\\nft-marketplace\\contracts\\NftMarket.sol",
  "compiler": {
    "name": "solc",
    "version": "0.8.19+commit.7dd6d404.Emscripten.clang"
  },
  "schemaVersion": "3.4.13",
  "updatedAt": "2023-04-20T03:48:13.656Z",
  "networkType": "ethereum",
  "devdoc": {
    "events": {
      "Approval(address,address,uint256)": {
        "details": "Emitted when `owner` enables `approved` to manage the `tokenId` token."
      },
      "ApprovalForAll(address,address,bool)": {
        "details": "Emitted when `owner` enables or disables (`approved`) `operator` to manage all of its assets."
      },
      "Transfer(address,address,uint256)": {
        "details": "Emitted when `tokenId` token is transferred from `from` to `to`."
      }
    },
    "kind": "dev",
    "methods": {
      "approve(address,uint256)": {
        "details": "See {IERC721-approve}."
      },
      "balanceOf(address)": {
        "details": "See {IERC721-balanceOf}."
      },
      "getApproved(uint256)": {
        "details": "See {IERC721-getApproved}."
      },
      "isApprovedForAll(address,address)": {
        "details": "See {IERC721-isApprovedForAll}."
      },
      "name()": {
        "details": "See {IERC721Metadata-name}."
      },
      "owner()": {
        "details": "Returns the address of the current owner."
      },
      "ownerOf(uint256)": {
        "details": "See {IERC721-ownerOf}."
      },
      "renounceOwnership()": {
        "details": "Leaves the contract without owner. It will not be possible to call `onlyOwner` functions anymore. Can only be called by the current owner. NOTE: Renouncing ownership will leave the contract without an owner, thereby removing any functionality that is only available to the owner."
      },
      "safeTransferFrom(address,address,uint256)": {
        "details": "See {IERC721-safeTransferFrom}."
      },
      "safeTransferFrom(address,address,uint256,bytes)": {
        "details": "See {IERC721-safeTransferFrom}."
      },
      "setApprovalForAll(address,bool)": {
        "details": "See {IERC721-setApprovalForAll}."
      },
      "supportsInterface(bytes4)": {
        "details": "See {IERC165-supportsInterface}."
      },
      "symbol()": {
        "details": "See {IERC721Metadata-symbol}."
      },
      "tokenURI(uint256)": {
        "details": "See {IERC721Metadata-tokenURI}."
      },
      "transferFrom(address,address,uint256)": {
        "details": "See {IERC721-transferFrom}."
      },
      "transferOwnership(address)": {
        "details": "Transfers ownership of the contract to a new account (`newOwner`). Can only be called by the current owner."
      }
    },
    "version": 1
  },
  "userdoc": {
    "kind": "user",
    "methods": {},
    "version": 1
  }
}